:100000000C9431010C944E010C944E010C944E0151
:100010000C944E010C944E010C944E010C944E0124
:100020000C944E010C944E010C944E010C944E0114
:100030000C944E010C94E5010C944E010C944E016D
:100040000C944E010C944E010C9441360C943937AB
:100050000C944E010C9479020C944E010C944E01B8
:100060000C944E010C944E017D09240EAD09F60747
:10007000F607F607F607F607F607F607660E560EBA
:10008000F607F6077A0D5C0DF607F607F607F60792
:10009000F607F607F607F607F607F607F607F60778
:1000A000F607F607F607F607F607F607F607F60768
:1000B000F607F607F607F607F607F607F607F60758
:1000C000F607F607F607F607F607F607F607F60748
:1000D000F607F607F607F607F607F607F607F60738
:1000E000F607F607F607F607F607F607F607F60728
:1000F000F607F607F607F607F607F607F607F60718
:10010000F607F607F607F607F607F607F607F60707
:10011000F607F607F607F607F607F607F607F607F7
:10012000F607F607F607F607F607F607F607F607E7
:100130006E0A840AC10DF607F607F607F607F607FA
:10014000F607F60745095B09F30CF607F607010DFC
:100150009F0C5D0F150EF607C40E430CDF10BF1089
:10016000F607F607F607D6100C0E470FD80E500FFD
:10017000270C4C0EF607370A4D0ACA10F607F60789
:100180002610D60F3B0D2F0DF607F607F607F607DC
:10019000F607F607A60AD60AA510BA0EF607F6075E
:1001A000F607F607F607F60792106410DB0DCF0D81
:1001B000F607F607F607F607F607F6079F0F720F22
:1001C000C20F170DF607F6079B08B1083E0EF6079B
:1001D000F60DFC0BDB0BCE0BF607F607F607F60762
:1001E000F607F607F607F607F607F607F607F60727
:1001F000F607F607F607F607F607F607F607F60717
:10020000F607F607F607F607F607F607F607F60706
:10021000F607F607F607F607F607F607F607F607F6
:10022000F607F607F607F607F607F607F607F607E6
:10023000F607F607F607F607F607F607F607F607D6
:10024000F607F607F607F607F607F607F607F607C6
:10025000F607F607F607F607F607F6074D0BF6075B
:10026000230D11241FBECFEFD8E0DEBFCDBF15E0B8
:10027000A0E0B1E0EAECF4E702C005900D92AC3BDF
:10028000B107D9F727E0ACEBB5E001C01D92A4326D
:10029000B207E1F70E9489070C94633A0C940000BE
:1002A0000F931F93CF93DF938C01C62FCC0F6C0F4E
:1002B000C62FD0E0FC016281CE01C0960E94553A63
:1002C000F8016181CE01C1960E94553AF801608122
:1002D000CE01C296DF91CF911F910F910C94553AA8
:1002E000DF92EF92FF920F931F93CF93DF93EC0176
:1002F0001A82198218821B828CED97E09F838E836D
:1003000081E08C838D83162F110F160FE12EF12CB7
:10031000C701C0960E944D3A082F8A83C701C19633
:100320000E944D3AD82E8983C701C2960E944D3A49
:100330008883083118F49BE39D1570F41A821982A2
:100340001882612FCE01DF91CF911F910F91FF9005
:10035000EF90DF900C9450018C3380F7DF91CF91B8
:100360001F910F91FF90EF90DF9008959091C1053C
:1003700089272091C2059091C30592279093C305C8
:100380009091C20590959093C2059091C3059823D2
:100390009093C3059091C20598239093C205209134
:1003A000C3059091C205922B909589239091C10528
:1003B00098279093C1059091C1059C7F9093C105AA
:1003C0009091C1059095892308951F920F920FB6C1
:1003D0000F9211242F933F934F935F936F937F93CB
:1003E0008F939F93AF93BF93EF93FF93809184007C
:1003F0009091850085539C40909385008093840064
:100400008091170780FF05C08091CD0581608093A2
:10041000CD05809117078F5F809317078A30C8F04A
:10042000109217078091CD058271823019F1809169
:10043000D3059091D40501969093D4058093D3056C
:100440008091D1059091D20501969093D205809329
:10045000D105FF91EF91BF91AF919F918F917F91C6
:100460006F915F914F913F912F910F900FBE0F9021
:100470001F90189540911A0150911B01E091CF05F2
:10048000F091D0059A01ADECBCEC0E941A3A969519
:1004900087959695879596958795E80FF91FF09320
:1004A000D005E093CF052091CE05BC01660F771FE4
:1004B000880F991F880F991F880F991F860F971F04
:1004C000481B590B420F4093CE058091CE058B30CF
:1004D00008F4ADCF8091CF059091D005019690930F
:1004E000D0058093CF058091CE058A508093CE05AC
:1004F0009ECF1F920F920FB60F9211242F933F930E
:100500004F935F936F937F938F939F93AF93BF931B
:1005100020917800309179008091BF059091C005BD
:10052000820F931F9093C0058093BF058091BC05F7
:100530008F5F8093BC05803460F18091BF059091FE
:10054000C0050024880F991F001C880F991F001CEC
:10055000892F902D9093C0058093BF052091BF05F2
:100560003091C005ABE4B0E00E941A3ADC01CB0147
:1005700039E0B695A795979587953A95D1F79093D9
:10058000BE058093BD051092C0051092BF05109264
:10059000BC05BF91AF919F918F917F916F915F91BA
:1005A0004F913F912F910F900FBE0F901F90189574
:1005B0001F93CF93DF93CDB7DEB7A8970FB6F8940C
:1005C000DEBF0FBECDBF20E044E1BE016B5E7F4FBA
:1005D00088E197E00E94AD39882351F08091D805D9
:1005E0009E89981729F09D899F3F61F0891751F0E6
:1005F000A8960FB6F894DEBF0FBECDBFDF91CF91A6
:100600001F9108952F89222309F450C010E040E083
:1006100050E09DEF910F923060F0E5E1F0E0EC0FDB
:10062000FD1FE10FF11D6081CA010E947E38AC01FF
:100630002F891F5F121768F3652F7727898D90E048
:1006400086179707A9F65527888D90E04817590710
:1006500079F68A8D813409F44FC0873561F182358E
:1006600009F45CC0833521F69E898091D7059813E3
:10067000BFCF2B3008F4BCCF8C8D90E0982F88270B
:100680002D8D820F911D9093CC058093CB058E8D7F
:100690008093CA0580911E0190911F019093D60509
:1006A0008093D5058F8D8093C905A2CF60E070E05F
:1006B00040E050E0C3CF8E89898388E08B8387E751
:1006C0008E838B8D6C8D90E00E94553A8B8D8F833D
:1006D0009C8D988781113AC080E090E00E944D3A4D
:1006E0008093D8058A834B81BE016F5F7F4F8EE177
:1006F00097E00E9436397CCF8E8989838091D80516
:100700008A8386E08B8381E68E8346E0BE016F5F3D
:100710007F4F8EE197E00E9436396ACF8E898983B8
:100720008091D8058A8388E08B8382E78E838B8DC6
:100730008F8390E00E944D3A888748E0BE016F5F4A
:100740007F4F8EE197E00E94363952CF8091D805D5
:10075000C9CFCF93DF93EC01AC0167E08FEB0E9430
:1007600091308881982F9077969596959695292F18
:10077000220F220F920F8F70890F80935F0689815D
:10078000982F9077969596959695292F220F220F60
:10079000920F8F70890F809360068A81982F9073D3
:1007A000969596959695292F220F220F920F8F706E
:1007B000890F809361068B81982F907396959695FB
:1007C0009695292F220F220F920F8F70890F8093F9
:1007D00063069C81892F8F70292F207194FD2AE058
:1007E000820F809364068E81282F22952F708F7040
:1007F00090E08053984F3AE0239F800D911D112483
:100800009093660680936506DF91CF9108951F93BC
:10081000CF93DF93CDB7DEB72A970FB6F894DEBF3C
:100820000FBECDBF14BEA8950FB6F894A8958091C1
:100830006000886180936000109260000FBE8AB1F2
:100840008D708AB93C98539A3C9A5B9A44980E945E
:1008500088308CE00E94B6320E947E3286E480931B
:100860007C0086E380937A0010927B0010927E00D9
:100870001092BE051092BD051092C0051092BF05E2
:100880001092BC0580917A00886D80937A00109256
:1008900061061092600610925F06109262068CED5F
:1008A00097E0909366068093650681E080936306E7
:1008B00080936406CE0101960E94A903898187FD79
:1008C000F6C080E88983AE014F5F5F4F61E08EE83C
:1008D0000E949130109211071092100710920F078A
:1008E000109212078CED97E09093160780931507EE
:1008F00081E080931307809314078FE097E00E94B4
:10090000AA31882309F47EC080E290E00E944D3A2B
:100910008093CD058BE390E00E944D3A182F8AE337
:1009200090E00E944D3A90E0982F8827810F911D0A
:100930009C012A5031092E3D334008F08BC0909322
:100940001B0180931A018CE390E00E944D3A8F3F87
:1009500009F498C08093D705682F8CE390E00E943B
:10096000553A8DE390E00E944D3A182F8EE390E0C7
:100970000E944D3A212F30E0A901582BCA019A015B
:100980002A5031092630374208F042C090931F01A7
:1009900080931E0180E090E00E944D3A8093D8053C
:1009A00083E090E00E944D3A182F82E090E00E9490
:1009B0004D3A212F30E0382B30931D0120931C013C
:1009C00080911C0190911D01892BC9F080911C011F
:1009D00090911D0190931D0180931C0180911C0139
:1009E00090911D01019609F451C02A960FB6F89412
:1009F000DEBF0FBECDBFDF91CF911F91089581E083
:100A000090E0E8CF60E08FE097E00E9470017CCF3B
:100A10008AE090E090931F0180931E016AE08DE3CD
:100A200090E00E94553A60911F018EE390E00E9491
:100A3000553A8DE390E00E944D3A182F8EE390E0F6
:100A40000E944D3A212F30E0382B30931F01209324
:100A50001E01A0CF8AE090E090931B0180931A01C1
:100A60006AE08BE390E00E94553A60911B018AE3B3
:100A700090E00E94553A8CE390E00E944D3A8F3FFF
:100A800009F068CF1092D70580E066CF64E183E07B
:100A900090E00E94553A60E082E090E00E94553A72
:100AA00084E190E090931D0180931C019ECF1982F8
:100AB000AE014F5F5F4F61E08EE80E949130898107
:100AC0008F778983AE014F5F5F4F61E080E80E94BE
:100AD0009130F7CE6AE080E00E94E83560E081E086
:100AE0000E94E8356BE082E00E94E8356CE083E02C
:100AF0000C94E8350F931F93CF938C01FC01C281B6
:100B0000662329F0C11149C0C2E061E017C08DEC35
:100B1000C89F912D1124969596959695989F612D35
:100B20001124669566956695292FFAE06F9F201926
:100B30001124622F8AE0989FC019112480E00E943E
:100B4000E8356C2F81E00E94E835F8016181CDEC39
:100B50006C9F612D11246695669566956C9F812D1D
:100B60001124869586958695FAE08F9F6019112449
:100B700082E00E94E835F80161816C9FC12D11244B
:100B8000C695C695C695FAE0CF9F6019112483E0FB
:100B9000CF911F910F910C94E835CD30E0F4CA301D
:100BA00010F46DE0CBCF8DECC89F912D112496955C
:100BB00096959695989F612D1124669566956695F4
:100BC000892F2AE0629F80191124682FEAE09E9FF6
:100BD000C0191124B3CFCC50E2CF0E94BF3560E0E2
:100BE00080E00E94563260E080E00E94563286E447
:100BF00091E00E94A63261E080E00E9456328BE5CF
:100C000091E00E94A63262E080E00E94563280E7C6
:100C100091E00E94A63263E080E00E94563285E8AF
:100C200091E00E94A6322FEF81E19AE721508040A7
:100C30009040E1F700C000000C947E32AF92BF926A
:100C4000CF92DF92EF92FF920F931F93CF935C01AD
:100C50006B017A01890164E080E00E945632C4E1B0
:100C600080E20E948432C150D9F763E080E00E94A4
:100C70005632C5010E94A63263E085E00E945632DA
:100C8000C6010E94A63263E08AE00E945632C70184
:100C90000E94A63263E08FE00E945632C801CF91D5
:100CA0001F910F91FF90EF90DF90CF90BF90AF908A
:100CB0000C94A632CF93DF93EC0162E089E00E94AE
:100CC00056328C810E943F358DE20E948432ED8144
:100CD000F0E0EE0FFF1FE050FF4F808191810E94F6
:100CE000A6328AE991E00E94A6324E815F819A0184
:100CF0003695279536952795ABE7B4E10E941A3AC9
:100D000096958795342F24E6829F30191124832FDE
:100D1000DF91CF910C946E35CF938091CD0586FFF6
:100D20003CC08091CB059091CC059C01220F331FD4
:100D3000220F331F220F331F280F391F225A394920
:100D4000ADECBCEC0E941A3A0024880F991F001CDD
:100D5000880F991F001C892F902DC0E2C80F62E0F8
:100D600089E00E9456328C2F0E94A5338FED0E949D
:100D700084328091CD0586FD1EC083E40E948432BA
:100D800080E20E9484328091CA0586950E94A53334
:100D90008EE991E0CF910C94A6328091CB05909191
:100DA000CC0582519141929582958F7089279F70D1
:100DB0008927C82FD4CF86E4E1CFCF93DF93EC010E
:100DC00062E080E00E9456328091CD05807349F147
:100DD00081EA91E00E94A6328091CD0582FF29C070
:100DE0009A818BEA989F812D112486958695869508
:100DF000282F220F820F880F880F981B892F69F1E7
:100E00000E943F3589810E946E358091CD0582FF19
:100E10001AC08A818C30E0F481E4DF91CF910C9488
:100E2000843285EA91E00E94A6328091CD0582FD50
:100E3000D7CF8A810E946E3589810E946E3580915C
:100E4000CD0582FDE6CF88E6DF91CF910C94843208
:100E500080E5DF91CF910C9484328CE0D1CF1F9349
:100E6000CF93DF93EC01162F62E089E00E945632A7
:100E700080E20E9484321123A1F19A818BEA989F2B
:100E8000812D1124869586958695282F220F820F15
:100E9000880F880F981B892F09F48CE00E943F353A
:100EA0008AE30E94843289810E946E358AE30E941F
:100EB000843288810E946E358A818C3048F080E5CA
:100EC0000E9484328DE4DF91CF911F910C94843283
:100ED00081E40E9484328DE4DF91CF911F910C94C4
:100EE00084328A810E946E358AE30E94843289812D
:100EF0000E946E358AE30E94843288810E946E359A
:100F000080E20E94843280E2DF91CF911F910C94A5
:100F10008432CF93DF93CDB7DEB7AD970FB6F89499
:100F2000DEBF0FBECDBF0E9407048AB187708AB9A9
:100F30001092800083E0809381001092820081E013
:100F400080936F00109217071092D4051092D3056A
:100F50001092D0051092CF051092CE051092D205B6
:100F60001092D10544E067E676E08EE197E00E94BA
:100F7000103944E06BEB76E088E197E00E9410398D
:100F80000E9468370E94ED05789480E090E0DC01D3
:100F900000E010E0212C312CC12CD12C812C912C83
:100FA000E12C18A61FA2F12C28EE422E23E0522E8F
:100FB000612C712C0196A11DB11D8093C4059093E5
:100FC000C505A093C605B093C70588E197E00E94C8
:100FD000263981110C9410118091CD0580FF02C03B
:100FE0000C9400110D3F110508F4A0C061E080E0F1
:100FF0000E94563286EA93E00E94A63262E080E0C8
:101000000E9456328BEB93E00E94A6328091CD0570
:1010100081FDCAC08091D1059091D2050A9710F048
:101020000C94A6162091D3053091D40580911C0113
:1010300090911D012817390710F40C94FA10209193
:101040001C0130911D018091D3059091D405821B24
:10105000930B9093D4058093D30580912007811141
:101060000C9414118091CD05869581709091CD05D9
:1010700094FD82609091CD0593FD84609091CD05A3
:1010800092FD88609091D8059A839FEF998392E1B1
:101090009B8394E59E83909161069F839091600667
:1010A000988790915F0699878A87809111078B872F
:1010B000809110078C8780910F078D8780911A018E
:1010C00090911B019E878F8780916506909166069F
:1010D0009C01329522952F7023273F702327288B60
:1010E000909164069F708295807F892B898B809177
:1010F00063068A8B42E1BE016F5F7F4F8EE197E00E
:101100000E943639912C03C0A8950E9493378EE136
:1011100097E00E9426398111F7CF8091C405909104
:10112000C505A091C605B091C70544CFF801EC5C98
:10113000FF4F0C94143A8091CD058870E82E60E042
:1011400080E00E94563280E493E00E94A63228E0BC
:1011500032E049E252E062E573E087E593E00E9405
:101160001E0661E080E00E9456328CE593E00E940A
:10117000A63262E080E00E9456328AE693E00E9446
:10118000A632EE2011F40C94E51161E081E00E949A
:1011900056328AE20E9484328091CD0581FD02C0E0
:1011A0000C94181102EB10E08091CD0584FD32CF34
:1011B0008091CF059091D0050A9708F42BCF20910C
:1011C000CF053091D005ADECBCEC0E941A3A969553
:1011D00087959695879596958795BC0177278091F9
:1011E0000F079B01280F311D909110072C333105FB
:1011F00064F09F5F01C0942F2C53310941E0490FE7
:101200002C333105C0F79093100720930F0780917E
:1012100011079C3360F08F5F01C0822F9C5321E047
:10122000280F9C33D0F780931107909310078831D3
:1012300060F09BEA899F912D112492959F7028E17F
:10124000929F80191124809311078091CF0590916E
:10125000D00546EF46039001479F300D1124820FC1
:10126000931F9093D0058093CF05C80101970297F3
:1012700008F0D0CE8091D1059091D2050A9710F058
:101280000C94861102E010E0CDCE8091CD058470E3
:10129000E82E60E080E00E94563288E592E00E94ED
:1012A000A63228E032E049E252E06EE272E083E3E7
:1012B00092E00E941E0661E080E00E94563288E3C0
:1012C00092E00E94A63262E080E00E94563288E4FA
:1012D00092E00E94A632EE2011F40C94F51161E028
:1012E00081E00E9456328AE20E9484328091CD05CC
:1012F00081FFA9C700E710E057CF61E080E10E94BD
:1013000056328091CD0581FD02C00C945C1389EAB0
:1013100091E00E94A6328091CD0581FD02C00C941F
:10132000581343EB51E08091CD0581FD02C00C9430
:101330004C138091CD0584FD02C00C94C1186EE75A
:1013400072E08091CD0581FD02C00C9454138EEAA9
:1013500091E02CEC31E00E941E0660E080E10E94EA
:1013600056328091CD0581FD02C00C9447128091C8
:10137000CD0582FD02C00C94F016809111078C30CF
:1013800010F00C949F1687EB91E00E94A63280919A
:10139000CD0584FD02C00C94CB130E946A058FE03A
:1013A00097E00E942F318091D705882361F08091CA
:1013B000D5059091D605892B31F08091C8058430F0
:1013C00010F00C94C41B6091CD0568708FE596E019
:1013D0000E942F0762E080E00E9456328DE391E088
:1013E0000E94A63262E081E00E94563220911A01EA
:1013F00030911B01ADECBCEC0E941A3A9695879592
:1014000096958795969587950E943F358EE20E9426
:10141000843240911A0150911B019A01ADECBCEC51
:101420000E941A3A969587959695879596958795F1
:101430009C01220F331F880F991F880F991F880F57
:10144000991F820F931F9A01281B390BC901805DD8
:101450000E94843281ED91E00E94A6328091CD05F8
:1014600081FD02C00C94A11201E010E09DCE80919C
:10147000CD058072E82E60E080E00E9456328AE658
:1014800092E00E94A63228E032E049E252E066E8AB
:1014900072E08EE792E00E941E0661E080E00E940A
:1014A00056328AE792E00E94A63262E080E00E9413
:1014B000563282E892E00E94A632EE2009F4BCC7C0
:1014C00062E081E00E9456328AE20E94843280917A
:1014D000CD0581FFEFC609E810E066CE8091CD050D
:1014E0008870E82E60E080E00E94563287E192E04A
:1014F0000E94A63228E032E049E252E06EE272E059
:1015000083E392E00E941E0661E080E00E94563272
:1015100088E392E00E94A63262E080E00E945632A8
:1015200088E492E00E94A632EE2011F40C949E1200
:1015300061E081E00E9456328AE20E94843280910A
:10154000CD0581FFC2C606E610E02ECE88E0EFE5AD
:10155000F6E0DE015F9601900D928A95E1F7ECA12D
:101560008FEF8E0F8C3010F00C943813F0E0E050B9
:10157000FB4F80819BA1911102C091E09BA3891731
:1015800008F48BA38DA19EA1805D974084369105C0
:1015900020F08CED97E09EA38DA360E080E00E9498
:1015A00056328CEA92E00E94A632E12C61E080E0A3
:1015B0000E9456328BA10E943F3580E20E94843205
:1015C000ECA1F0E0EE0FFF1FE050FF4F8081918112
:1015D0000E94A6328FEB92E00E94A6324DA15EA13E
:1015E0009A013695279536952795ABE7B4E10E9489
:1015F0001A3A96958795242FF4E68F9F2019112487
:10160000822F0E946E3562E080E00E94563289E3AC
:1016100091E00E94A63231E0E31611F40C943214EA
:10162000E31610F40C94C11342E0E41208C062E027
:1016300087E00E94563287EC92E00E94A6328CA18D
:10164000E82FF0E0E050FB4F9081823009F4EBC7C7
:101650008BA1981708F0FDC661E08FE00E9456321A
:1016600087EC93E00E94A63262E08FE00E9456323F
:101670008CEC93E00E94A63221E431E04DE952E087
:1016800062EA72E087EA92E00E941E068091CD0530
:1016900081FF31C608E910E087CD60E080E00E945C
:1016A00056328FEE92E00E94A63261E080E00E9406
:1016B00056328BEF92E00E94A6322091BD05309108
:1016C000BE05ADECBCEC0E941A3A969587959695AE
:1016D0008795969587950E943F358EE20E948432C9
:1016E0004091BD055091BE059A01ADECBCEC0E9445
:1016F0001A3A9695879596958795969587959C0124
:10170000220F331F880F991F880F991F880F991F69
:10171000820F931FFA01E81BF90BCF01805D0E9435
:10172000843286E50E94843262E080E00E94563274
:101730008091D5059091D605892B29F08091D70508
:1017400081110C947D198CE391E00E94A63261E036
:101750008BE00E94563285E093E00E94A632809191
:10176000D8050E94073360E08CE00E945632C10128
:101770000E94E5338DE093E00E94A6322DE032E036
:1017800045E451E0BA0182E193E00E941E06809197
:10179000CD0581FF53C60CEF10E006CDEF2DE071B3
:1017A000BE2EF4FE9EC78091CD0581FF8EC705EB4E
:1017B00010E0F12CF9CCF4FC02C00C94FB1331E0E6
:1017C000E31611F40C949E1CE31610F40C94591FAC
:1017D00042E0E41611F40C94CE1D83E0E81611F4F7
:1017E0000C949B1D8091CD0581FD02C00C948E1D33
:1017F00005EB10E0F12CD8CC61E080E00E9456327D
:10180000C6010E94A6348AE293E00E94A63262E0FA
:1018100080E00E94563289E391E00E94A63262E0A5
:101820008E2D0E9456328EE50E94843227EC31E0E4
:101830004DE952E062EA72E087EA92E00E941E06F9
:101840008091CD0581FFE0C506EB10E0ADCCF4FC46
:1018500002C00C948214F1E0EF1611F40C942221D2
:10186000EF1610F40C94802222E0E21611F40C948E
:10187000101E8091CD0581FD02C00C94B71B03E8BA
:1018800010E0F12C91CC1E2D110F1E0D27EC31E034
:101890004DE952E062EA72E087EA92E00E941E0699
:1018A00061E080E00E9456328091CD0583FFA5C69D
:1018B00099A18BEA989F812D11248695869586950E
:1018C000282F220F820F880F880F981B892F09F469
:1018D0008CE00E943F358AE30E94843288A10E94F6
:1018E0006E358AE30E9484328F8D0E946E3580E2CD
:1018F0000E9484328091CD0583FF0AC089A18C307B
:1019000008F075C781E40E9484328DE40E9484321D
:1019100062E080E00E9456328CE391E00E94A632A1
:1019200062E0812F0E94563289EC92E00E94A6323A
:101930008091CD0581FF92C40AE710E035CC61E0CB
:1019400080E00E9456329601ADECBCEC0E941A3A3F
:101950008C01169507951695079516950795802F76
:101960000E946E358EE20E948432C801880F991F52
:10197000000F111F000F111F000F111F800F911F6B
:10198000F601E81BF90BCF01805D0E94843281EDE6
:1019900091E00E94A63262E080E00E94563289E324
:1019A00091E00E94A632EE2011F40C94D816F1E0DA
:1019B000EF1208C062E083E00E9456328AEC92E0A7
:1019C0000E94A63227EC31E04DE952E062EA72E073
:1019D00087EA92E00E941E068091CD0581FF4CC5EA
:1019E00005E710E0E1CBF4FE62C78091CD0581FDF3
:1019F00002C00C943E160FE610E0B4E0EB2EF12C82
:101A0000D3CBC0901A01D0901B010E947E3260E0BF
:101A100080E00E9456328BE892E00E94A6328091CC
:101A2000CD0581FFE5C404E710E0E12CBDCBF4FE59
:101A30002FC78091CD0581FD02C00C94B9160BEA29
:101A400010E0F12CB1CB8091CD05F4FEADC681FD47
:101A500002C00C9431160AEF10E0F12CA5CBF4FE75
:101A6000ACC68091CD0581FD02C00C9484160DE8B2
:101A700010E0F12C99CBF4FC02C00C94781541E0F5
:101A8000E41611F40C94CC1AE41610F40C940B1B0D
:101A900082E0E81611F40C94721A93E0E91611F43E
:101AA0000C94051F8091CD0581FD02C00C94F91E98
:101AB0000DE810E0F12C78CB8F2D807709F48CC6DF
:101AC000F4FE02C00C948121F5FE02C00C947C1E31
:101AD000F6FE02C00C941C270E947E328091CD0538
:101AE00081FD02C00C944D1600E010E099249394FF
:101AF000F12C5ACB0E947E3260E083E00E94563285
:101B000084ED91E00E94A63261E082E00E945632AC
:101B100082EE91E00E94A63262E080E00E9456329E
:101B200083EF91E00E94A63264E080E00E9456328A
:101B300014E180E20E9484321150D9F700E0602F56
:101B4000CE0101960E94700163E0812F0E945632FF
:101B50008B810E946E358A810E946E350F5F1B5FFC
:101B6000033069F763E08FE00E94563288E092E02C
:101B70000E94A6328091CD0581FF1CC40FE010E0C9
:101B800013CBF4FE79C68091CD0581FD02C00C9483
:101B90006B1605E610E088E0E82EF12C05CBF4FE8C
:101BA0006CC58091CD0581FD02C00C94191601EA27
:101BB00010E0F12CF9CAF4FE2EC7E1100C94E017E6
:101BC000E0E18E0EFFEF8F1611F40C94D9238110F3
:101BD0000C94E6178091CD0581FD02C00C944D193F
:101BE00001EA10E088248394F12CDECAC0901E0123
:101BF000D0901F010E947E3260E080E00E94563249
:101C000084E993E00E94A6328091CD0581FF7FC4D4
:101C100005EB10E0E12CC8CA8091CD0581FFD8C347
:101C200002E810E088248394BFCA9F2D9071B92EDA
:101C3000F4FE8BC68091CD0581FD02C00C94251663
:101C400004E710E0F12CB0CAF4FEFFC69091CD0578
:101C500082E089278093CD058091CD0585FF02C064
:101C60000C9441178091CD0581FD02C00C94301772
:101C700000E010E099249394F12C96CAF4FE6FC70B
:101C80008091CD0581FD02C00C94911601EB10E00E
:101C900050E4E52EF12C88CAF4FE52C78091CD05A0
:101CA00081FFADC703E810E0F12C7ECAF4FE72C7D5
:101CB00038A531110C9439188091CD0581FD02C0F1
:101CC0000C942C180AE010E0F12C6ECA0E947E32AF
:101CD00038A53E3008F0F4C46DEB71E03111F2C468
:101CE00085E491E02DE032E042E152E00E941E06E0
:101CF0008BEA48A5489F812D11248695982F990F2E
:101D0000890FE82FF0E0FBA7EAA78F01000F111F52
:101D1000000F111F0C531B4FA12CB12C242F30E0AE
:101D20003DA72CA7A9A68AA59BA58A0D9B1D8F3030
:101D3000910580F4ECA5FDA5E817F90711F40C94C2
:101D4000A41969A582E00E945632F8018081918130
:101D50000E94A632FFEFAF1ABF0A0C5F1F4F23E0AD
:101D6000A216B104F9F68091CD0581FFF5C30BE011
:101D700010E01ACAF4FE2BC78091CD0581FF32C74F
:101D800007E910E0F12C10CA88E0EFE5F6E0DE018B
:101D90005F9601900D928A95E1F760E080E00E94E5
:101DA00056328CEC92E00E94A63210E0E12C6ECD0F
:101DB000682DCE014F960E94700160E080E00E9485
:101DC00056328FED92E00E94A63281E3880D0E9488
:101DD00084328AE30E94843210E0E12C27EC31E067
:101DE0004DE952E062EA72E087EA92E00E941E0644
:101DF00061E080E00E9456328091CD0582FF08C4E8
:101E000099A18BEA989F812D1124869586958695B8
:101E1000282F220F820F880F880F981B892F09F413
:101E20008CE00E943F358AE30E94843288A10E94A0
:101E30006E358AE30E9484328F8D0E946E3580E277
:101E40000E9484328091CD0582FF0AC089A18C3026
:101E500008F054C581E40E9484328DE40E948432EB
:101E600062E080E00E9456328CE391E00E94A6324C
:101E700062E0812F0E94563289EC92E00E94A632E5
:101E80008091CD0581FF00C204E810E08DC98091EA
:101E9000CD0581FFC4C202E810E0F2E08F2E84C9B4
:101EA0008BEAE89E812D11248695982F990F890F32
:101EB000E81A1E2D110F1E0D91CFF4FE74C5EE20F1
:101EC00011F40C941D1921E0E21611F40C94BA19C6
:101ED0008091CD0581FD02C00C94AD1904E710E09E
:101EE000F12C62C912E01E0D61E080E081103CC05F
:101EF0000E9456328CE893E00E94A63262E080E0B5
:101F00000E94563289E391E00E94A63262E0812F5E
:101F10000E9456328AEC92E00E94A63227EC31E011
:101F20004DE952E062EA72E087EA92E00E941E0602
:101F30008091CD0581FFD4C10CEA10E035C98090B5
:101F4000D7058FEF881611F40C94A01760E080E09D
:101F50000E94563288E793E00E94A63212E0E12CFC
:101F600061E080E0882021F20E9456328AE093E00E
:101F70000E94A632882D0E94073382E491E00E94DD
:101F8000A632BCCFF4FE9FC4E1100C94971890E1E8
:101F9000890EEFEF8091CD058E1611F40C949E18EA
:101FA00081FF47C70BEA10E0F12CFEC861E080E03A
:101FB0000E9456329601ADECBCEC0E941A3A8C019C
:101FC000169507951695079516950795C8010E94D1
:101FD0003B338EE20E948432C801880F991F000FA4
:101FE000111F000F111F000F111F800F911F96016D
:101FF000281B390BC901805D0E9484328AE293E07C
:102000000E94A63262E080E00E94563289E391E0AD
:102010000E94A63233E0E31252C062E084E00E94E4
:1020200056328AEC92E00E94A63227EC31E04DE96C
:1020300052E062EA72E087EA92E00E941E06809116
:10204000CD0581FF2CC10EE810E0AEC880911C01C7
:1020500090911D01029708F48AC280911C01909111
:102060001D018031974208F482C269E3E62E07EE33
:1020700013E07FE0C72E77E2D72E60E080E00E9479
:10208000563287E193E00E94A63261E080E00E9430
:102090005632C8010E943B338EE20E9484328E2D5C
:1020A0000E9484328AE293E00E94A63262E080E0DD
:1020B0000E94563289E391E00E94A632E12C62E050
:1020C0008E2D0E945632ADCF12E01E0D61E080E0F1
:1020D0000E9456328AE093E00E94A632882D0E9428
:1020E000073362E080E00E94563289E391E00E946B
:1020F000A63262E0812F0E9456328AEC92E00E9462
:10210000A63227EC31E04DE952E062EA72E087EA5C
:1021100092E00E941E068091CD0581FFAAC002EACE
:1021200010E042C88090D8058FEF880D8E3F10F0E8
:102130008824839460E080E00E9456328FE293E02E
:102140000E94A63212E0E12CC1CFF4FEAEC481E0C1
:10215000E81611F40C94D01EE81610F40C94082123
:1021600092E0E91611F40C948E208091CD0581FD4A
:1021700002C00C94161D07E910E0F12C15C8F4FEFE
:10218000FAC48091CD0581FF47C509E710E0F12C25
:102190000C94D408F4FE0EC58091CD0581FF8EC548
:1021A00008E810E0E12CF12C0C94D4088091CD05C6
:1021B00081FFA1C102E810E0812C0C94D408F4FE48
:1021C000BDC231E0E31611F40C94361FE31610F48F
:1021D0000C94512142E0E41611F40C9440218091BA
:1021E000CD0581FD02C00C94DD1C09E710E0F12C47
:1021F0000C94D408992011F40C9487080C942D08A1
:102200008091CD058E7F8093CD0529B196B1287F31
:10221000892F8470822B0E94B601F82E0C94F2074D
:102220000E94D8020C94EC07992493940C9487088C
:102230008091D1059091D2050A9708F0FDC102EB7B
:1022400010E00C9412088091D1059091D2050A9764
:1022500008F0D7C100E710E00C9412088091D10576
:102260009091D2050A9708F0EEC10AE710E00C94AD
:1022700012088091D1059091D2050A9708F0CCC13F
:1022800002EA10E00C9412088091D1059091D205D9
:102290000A9708F0E6C104E810E00C941208809157
:1022A000D1059091D2050A9708F099C10EE810E087
:1022B0000C9412088091D1059091D2050A9708F0EC
:1022C000C9C109E810E00C9412088091D1059091E1
:1022D000D2050A9708F075C106E610E00C941208C2
:1022E0008091D1059091D2050A9708F071C10CEA4E
:1022F00010E00C9412088091D1059091D2050A97B4
:1023000008F074C108E910E00C941208CE0145965B
:102310000E94A9033FA1353A09F448C015EA85EAAD
:102320008FA360E087E00E945632812F0E948432A2
:1023300061E087E00E945632812F0E94843202E0E1
:1023400010E08091D1059091D2050A979093D20523
:102350008093D1056091C4057091C5058091C60533
:102360009091C705A30192010E94F2391901809151
:10237000D5059091D605009729F001979093D60541
:102380008093D5058091C8058F5F883060F4809375
:10239000C8051092C4051092C5051092C60510928A
:1023A000C7050C9412081092C805F3CF10E240E262
:1023B0004FA3B7CF8091D1059091D2050A9708F02D
:1023C00031C50FE010E00C94120862E00C94C608CE
:1023D0008091D1059091D2050A9708F0E0C4882435
:1023E000839402E810E00C94120862E00C947009E7
:1023F0008091D1059091D2050A9708F004C5E12C8F
:1024000004E710E00C9412088091D1059091D20558
:102410000A9708F000C506EB10E00C9412088091B2
:10242000D1059091D2050A9708F0D1C4E2E08E2E32
:1024300002E810E00C94120861E043C88091D105D5
:102440009091D2050A9708F0BDC40CEF10E00C94EF
:10245000120861E08FE00E94563281E491E00E9410
:10246000A63262E08FE00E94563281E491E00E9441
:10247000A63227EC31E002C98091D1059091D205B6
:102480000A9708F0B1C405E710E00C941208809197
:10249000CD0583FFDAC4809161068C3008F053C407
:1024A00087EB91E00E94A6326091CD0568708FE5C0
:1024B00096E00E947A058091D705882361F080918B
:1024C000D5059091D605892B31F08091C8058430CF
:1024D00010F00C94D11B8FE596E00E945A068FE015
:1024E00097E00E94DD068091CD0581FF1CC001E0D0
:1024F00010E00C94D4088091D1059091D2050A97F0
:1025000008F0A6C4812C02E810E00C941208809117
:10251000D1059091D2050A9708F06DC4E12C05EB26
:1025200010E00C9412088091D1059091D2050A9781
:1025300008F0ECCE01E010E00C94120862E00C947C
:10254000990A8091D1059091D2050A9708F0DECEC4
:1025500001E010E00C9412088091D1059091D20511
:102560000A9708F0BDC50BE010E00C9412088091AA
:102570001C0190911D01029708F486C6C0901C01B1
:10258000D0901D019601ADECBCEC0E941A3A8C0172
:102590001695079516950795169507959801220F9C
:1025A000331FC801880F991F880F991F880F991F23
:1025B000820F931FF601E81BF90BB0E3EB2EEE0E32
:1025C0005CCDCE0145960E94A90306E610E0B9CE87
:1025D000CE0145960E94A9030CEA10E0B2CECE01CE
:1025E00045960E94A9030EE810E0ABCECE014596B9
:1025F0000E94A90308E910E0A4CE89A10E946E35CB
:102600006AC9CE0145960E94A90300E710E099CE61
:1026100089A10E946E3507CCCE0145960E94A90380
:1026200002EA10E08ECE2DA13EA123703327232B8A
:1026300009F00EC89F5F0CC8CE0145960E94A90301
:1026400002EB10E07ECECE0145960E94A9030AE778
:1026500010E077CECE0145960E94A90309E810E06C
:1026600070CECE0145960E94A90304E810E069CE21
:1026700081E08CA38FE10C94BA0AF6FE02C00C94A0
:10268000B4228091CD05F7FE02C00C946D2181FF2C
:10269000A3C6F12C0C94D40865E471E08091CD05BB
:1026A00081FF02C00C94A70989EA91E00C94A90962
:1026B00045E451E00C9493098EEA91E00C94890969
:1026C00065E471E082EC91E00DCB8091D1059091B1
:1026D000D2050A9708F0A1C6F12C05EB10E00C9486
:1026E0001208F6FE9FC5C6010A978630974210F081
:1026F0000C9446206C2DBD2C8DE390E00E94553A41
:102700006B2D8EE390E00E94553A8DE390E00E949D
:102710004D3A182F8EE390E00E944D3A212F30E081
:10272000382B30931F0120931E018091CD0581FF2E
:102730006CC50AE010E0F12C0C94D408F5FE25C518
:1027400081E0E81611F40C946025E81610F40C945E
:10275000D62592E0E91611F40C94C0258091CD05A0
:1027600081FF02C00C94B3238091D1059091D205D2
:102770000A9710F00C94C929F12C09E710E00C9489
:10278000120862E080E00E94563289EC92E00E94DA
:10279000A6320C941F0B6091CD0564708FE097E01A
:1027A0000E947A050C94CF09F7FE02C00C94481DD4
:1027B00081FFEBC2F12C0C94D408F6FE02C00C94FD
:1027C00088218091CD05F7FE02C00C94471F81FF40
:1027D0007EC5F12C0C94D408F7FE02C00C94E528B9
:1027E0008091CD0581FF85C2F12C0C94D40880E541
:1027F0000E9484328AC8F5FEEAC431E0E31611F47F
:102800000C94D627E31610F40C94A12742E0E416AA
:1028100011F40C94752783E0E8120C9404289601B7
:10282000ADECBCEC0E941A3A9695879596958795E3
:10283000969587959C01220F331F880F991F880F4B
:10284000991F880F991F820F931FC816D90611F47C
:102850000C94A52A81E0C81AD10805EB10E0F12CF0
:102860000C94060862E083E00E94563283EC92E00A
:102870000E94A6320C941F0BF5FE54C38091CD0527
:1028800081FF42C305E610E0E12CF12C0C94D40842
:10289000F6FE02C00C949B1E8091CD05F7FE02C08F
:1028A0000C94941E81FF08C5F12C0C94D408F5FEFD
:1028B000C8C38091CD0581FFB6C30FE610E0E12CBF
:1028C000F12C0C94D408F5FE59C3E110F5C6F0EFD5
:1028D0008F0E2FEF8091CD05821609F4F3C681FD8E
:1028E0003EC68091D1059091D2050A9710F00C94C4
:1028F0006E26F12C0BEA10E00C94120880E50E9481
:102900008432ABCAF5FEF3C331E0E31611F40C9444
:10291000AE28E31610F40C94772842E0E41611F484
:102920000C94F8268091CD0581FF02C00C9495236C
:102930008091D1059091D2050A9710F00C94E42F64
:10294000F12C03E810E00C941208F6FE53C4C60103
:102950000A978E3D934008F0F6C66C2DBD2C8BE394
:1029600090E00E94553A6B2D8AE390E00E94553A20
:102970008BE390E00E944D3A182F8AE390E00E948A
:102980004D3A90E0982F8827810F911D90931B015D
:1029900080931A018091CD0581FF0CC40AE010E0FC
:1029A000F12C0C94D408F5FE70C3EE2011F40C94B5
:1029B000802321E0E2120C94F61C9601ADECBCECF5
:1029C0000E941A3A9695879596958795969587953C
:1029D0009C01220F331F880F991F880F991F880FA2
:1029E000991F820F931FC816D90611F00C949228D4
:1029F0008091CD0581FF02C00C9488248091D1057F
:102A00009091D2050A9710F00C94DB2FF12C04E77B
:102A100010E00C941208F5FE44C2E1100C94231D42
:102A200030EF830E4FEF8091CD05841611F40C9496
:102A30002A1D81100C944D1E81FF8AC601EA10E008
:102A400088248394F12C0C94D4088091CD05F7FE52
:102A500002C00C94C81E81FF7AC3F5FE78C3909122
:102A6000CD0580E189278093CD058091CD0581FF3B
:102A700002C00C94C9288091D1059091D2050A9783
:102A800010F00C94D02F2091D3053091D405809173
:102A90001C0190911D01F12C00E010E0281739076E
:102AA00010F00C941F080C942D08F5FE76C2E1E09E
:102AB000EE1611F40C947124EE1610F40C94E22628
:102AC000F2E0EF1611F40C94D3268091CD0581FF2E
:102AD00002C00C94C9268091D1059091D2050A9725
:102AE00010F00C94C72FF12C07E910E00C94120899
:102AF000F5FEFBC131E0E31611F40C941B25E3163F
:102B000010F40C94DB2442E0E41611F40C94A42499
:102B100083E0E81611F40C9428278091CD0581FFFD
:102B200002C00C9423278091D1059091D2050A9779
:102B300010F00C94BE2FF12C0DE810E00C9412084C
:102B4000F6FE02C00C94651E8091CD05F7FE02C012
:102B50000C945E1E81FFC6C3F12C0C94D408F5FEC4
:102B600056C28091CD0581FF44C201EB10E0E12CFB
:102B7000F12C0C94D408F6FE02C00C949D1F809199
:102B8000CD05F7FE02C00C94091E81FF9EC2F12CF8
:102B90000C94D408F5FEE8C288A58E3010F40C948D
:102BA0003A228091CD0581FF34C70AE010E0F12C74
:102BB0000C94D408F5FED7C18091CD0581FFC4C126
:102BC00008E810E0A0E2EA2EF12C0C94D408F6FC00
:102BD000FCC58091CD05F7FCF1C581FF9DC2F12CAC
:102BE0000C94D4088091D1059091D2050A9710F0E9
:102BF0000C94E71EF12C07E910E00C941208809168
:102C0000D1059091D2050A9710F00C94F01EF12C8A
:102C100003E810E00C9412088091D1059091D20540
:102C20000A9710F00C941422F12C09E710E00C9490
:102C300012088091D1059091D2050A9708F0A8C595
:102C4000F12C01EA10E00C9412088091D1059091CA
:102C5000D2050A9708F059C7F12C04E710E00C944C
:102C600012088091D1059091D2050A9710F00C942A
:102C7000AC20F12C0AEF10E00C9412088091D105E1
:102C80009091D2050A9710F00C947620A4E0EA2ED9
:102C9000F12C0FE610E00C9412088091D105909170
:102CA000D2050A9708F4EFCECE0145960E94A903FB
:102CB00099249394F12C00E010E043CB8091D1054E
:102CC0009091D2050A9708F0EFC7E12CF12C08E8A3
:102CD00010E00C9412088091D1059091D2050A97CA
:102CE00008F0CBC6B8E0EB2EF12C05E610E00C9412
:102CF00012088091D1059091D2050A9710F00C949A
:102D0000FC20F12C0C9412088091D1059091D205F1
:102D10000A9710F00C946D20F12C0DE810E00C9443
:102D200012088091D1059091D2050A9708F092C3BC
:102D300040E4E42EF12C01EB10E00C9412088AEB35
:102D400091E00C94C5098AEB91E0ACCBCE0145969D
:102D50000E94A9030130110508F4F3CA03301105DC
:102D600008F4D8CA0C3F110509F0EBCA0AEF10E0CD
:102D7000E8CA8091D1059091D2050A9708F08FC6D4
:102D8000F12C0BEA10E00C9412088091D10590917F
:102D9000D2050A9708F08CC6F12C0C941208CE01CB
:102DA00045960E94A9038824839402E810E0C9CACA
:102DB00062E080E00E94563289EC92E00E94A632E6
:102DC0000C94E20CCE0145960E94A903CFCFCE0110
:102DD00045960E94A903E2E08E2E02E810E0B1CAF7
:102DE00089ED93E00C94C509CE0145960E94A90394
:102DF00005E710E0A6CACE0145960E94A903E12C82
:102E000005EB10E09ECACE0145960E94A903E12C75
:102E100004E710E096CACE0145960E94A90306EB8E
:102E200010E08FCACE0145960E94A9030FE010E082
:102E300088CA8091D1059091D2050A9708F0B5C44F
:102E4000F12C0BEA10E00C94120889ED93E02ACBE8
:102E5000CE0145960E94A903812C02E810E071CAB8
:102E60008091D1059091D2050A9708F40CCECE013D
:102E700045960E94A90399249394F12C00E010E058
:102E800060CA8091CD0580618093CD058091CD058C
:102E900081FF1AC000E010E099249394F12C0C9467
:102EA000D408F6FC02C00C94582081E08E0D81708D
:102EB000E82E8091CD0581FD02C00C944C2001EAE2
:102EC00010E0F12C0C94D4088091D1059091D2059A
:102ED0000A9708F4D8CDCE0145960E94A9039924FB
:102EE0009394F12C00E010E02CCAF6FE03C681E0BA
:102EF0008E0D8370E82E8091CD0581FFEEC50DE823
:102F000010E0F12C0C94D4088091D1059091D20559
:102F10000A9710F00C941729E12CF12C05E610E02B
:102F20000C9412088F2D807C11F00C94DC21809180
:102F3000CD0581FD02C00C946320F12C0C94D408C3
:102F4000882483940C94A60F8091D1059091D2058A
:102F50000A9710F00C947E26F0E2EF2EF12C08E890
:102F600010E00C9412088F2D807C09F0C9C3809169
:102F7000CD0581FFBAC3F12C0C94D408F6FE01C331
:102F800081E08E0D8170E82E8091CD0581FFECC22D
:102F90000BEA10E0F12C0C94D408F6FEB4C68E2D8A
:102FA00090E0019663E070E00E94DE39E82E8091A7
:102FB000CD0581FF0EC507E910E0F12C0C94D40873
:102FC00083942FEF821611F40C94C6238091CD05C3
:102FD00081FF02C00C9403218091D1059091D2050C
:102FE0000A9710F00C940529F12C01EA10E00C94DA
:102FF00012088091D1059091D2050A9710F00C9497
:10300000FA23E12CF12C01EB10E00C9412088F2D27
:10301000807C11F00C9446228091CD0581FF3EC743
:10302000F12C0C94D4088091D1059091D2050A9787
:1030300010F00C940424E12CF12C0FE610E00C9419
:1030400012088F2D807C09F010C28091CD0581FF80
:10305000F6C1F12C0C94D4088091D1059091D20541
:103060000A9710F00C940E24F12C0AE010E00C9456
:10307000120848A5415048A78091CD0581FF18C08E
:103080000AE010E0F12C0C94D408F6FC02C00C9479
:10309000C22081E08E0D8170E82E8091CD0581FDEA
:1030A00002C00C94B52004E710E0F12C0C94D40875
:1030B0008091D1059091D2050A9710F00C941724B5
:1030C000F12C0AE010E00C9412088091D105909147
:1030D000D2050A9710F00C941228F12C0C941208C7
:1030E000CE0145960E94A9030BE010E02AC9F6FC28
:1030F00002C00C9462218E2D90E0019663E070E096
:103100000E94DE39E82E8091CD0581FF9AC503E843
:1031100010E0F12C0C94D4088091D1059091D20547
:103120000A9710F00C942A29F12C0C94120883941D
:10313000EFEF8091CD058E120C94D00F81FFBEC4AD
:103140000BEA10E04EEF842EF12C0C94D408809101
:10315000CD0581FF02C00C9427228091CD0581FF0F
:103160008AC7F12C0C94D408F7FE02C00C944828AE
:10317000F6FC74C58091CD0581FF44C1F12C0C94FF
:10318000D40866E872E00C94A109F6FC02C00C9425
:10319000F8228E2D90E0019663E070E00E94DE3907
:1031A000E82E8091CD0581FF5AC709E710E0F12C88
:1031B0000C94D4088091D1059091D2050A9710F013
:1031C0000C940928F12C0AE010E00C941208F6FC8B
:1031D00002C00C943D2381E08E0D8370E82E809117
:1031E000CD0581FD02C00C94C32105EB10E0F12C4C
:1031F0000C94D4088091CD05F7FE02C00C941E28D3
:1032000081FFF5C0F12C0C94D4088091D1059091E8
:10321000D2050A9710F00C943828F12C0AE010E03F
:103220000C9412088091CD05F7FE02C00C9476250F
:1032300081FF1FC0F12C0C94D4083EEDC31633E07F
:10324000D30608F0F3C04AE0C40ED11C8091CD052E
:1032500081FF02C00C94A6268091D1059091D205E1
:103260000A9710F00C94B52FF12C04E710E00C94A1
:1032700012088091D1059091D2050A9710F00C9414
:103280007726F12C0C94120841E3E42E00E010E0C4
:10329000CC24C394D12C0C943D108091D1059091F5
:1032A000D2050A9710F00C94802988248394F12C7D
:1032B00001EA10E00C9412088091D1059091D2059A
:1032C0000A9710F00C940E27F12C0C9412088091A0
:1032D000D1059091D2050A9710F00C942C26F12C70
:1032E0000C9412088091D1059091D2050A9710F0A4
:1032F0000C941527F12C0C94120880E093E00E94A6
:10330000A6328091C9051DEC819F812D11248695DF
:10331000869586950E943F358EE20E948432909178
:10332000C905919F812D1124869586958695FAE091
:103330008F9F90191124892F805D0E94843286E529
:103340000E9484320C94A70B6A2D80E00E945632B2
:103350008EE30E9484320C94A10E8091D10590914D
:10336000D2050A9710F00C94B025F12C04E710E078
:103370000C9412089601ADECBCEC0E941A3A96959A
:10338000879596958795969587959C01220F331F73
:10339000880F991F880F991F880F991F820F931FFD
:1033A000F601E81BF90B399709F404C7FFEFCF1AB0
:1033B000DF0A8091CD0581FF02C00C9468288091BE
:1033C000D1059091D2050A9710F00C949E2FF12C04
:1033D00004E710E00C9412088091D1059091D20579
:1033E0000A9710F00C942C28F12C0C941208809160
:1033F000D1059091D2050A9710F00C94B925F12CC3
:103400000C9412088091D1059091D2050A9710F082
:103410000C94EC25F12C0C941208CE0145960E94D8
:10342000A903F12C05EB10E00C94A1118091CD05BE
:1034300081FF3EC004E710E0F12C0C94D408809189
:10344000D1059091D2050A9710F00C94B426F12C76
:103450000C941208CE0145960E94A90380E4E82E40
:10346000F12C01EB10E00C94A111F6FE16C0809136
:10347000CD058B7F8093CD05EE2011F40C9495261D
:1034800084E09091CD05892B8093CD056091CD0589
:103490006C7680E290E00E94553A0E947E328091E4
:1034A000CD0581FF12C00AE010E0F12C0C94D40885
:1034B0008091D1059091D2050A9710F00C94AB261B
:1034C000F12C04E710E00C9412088091D105909142
:1034D000D2050A9710F00C94BB26F12C0AE010E0FC
:1034E0000C9412089601ADECBCEC0E941A3AAC01A7
:1034F0005695479556954795569547959A010E943A
:103500001A3A9695879596958795969587959C01F5
:10351000220F331F880F991F880F991F880F991F3B
:10352000820F931F481B590B4930510511F40C941D
:103530008C2F4AE0C40ED11C8091CD0581FF02C0C2
:103540000C9490268091D1059091D2050A9710F0A5
:103550000C947130F12C0DE810E00C9412080BEA79
:1035600010E0F12C0C94D4088091D1059091D205F3
:103570000A9710F00C946830F12C0BEA10E00C94D0
:103580001208F7FE02C00C9400308091CD0581FF37
:1035900088C0F12C0C94D408960136952795369561
:1035A0002795ABE7B4E10E941A3AAC0156954795CE
:1035B0009A01ADECBCEC0E941A3A969587959695C7
:1035C0008795969587959C01220F331F880F991F29
:1035D000880F991F880F991F820F931F481B590B43
:1035E0004930510511F40C94ED2F24E6C20ED11C84
:1035F0008091CD0581FF02C00C94C4268091D10535
:103600009091D2050A9710F00C944330F12C0DE8FC
:1036100010E00C941208960136952795369527955B
:1036200036952795A5ECB0E20E941A3AAC01529566
:1036300042954F7045275F7045279A01ADECBCEC71
:103640000E941A3A969587959695879596958795AF
:103650009C01220F331F880F991F880F991F880F15
:10366000991F820F931F481B590B4930510511F4C4
:103670000C943030E8E1CE1AECEFDE0A8091CD05F3
:1036800081FF02C00C94CE268091D1059091D20585
:103690000A9710F00C94832FF12C0DE810E00C9495
:1036A00012088091D1059091D2050A9710F00C94E0
:1036B0008926F12C0C9412088A942FEF8091CD0565
:1036C00082120DC981FF02C00C949F268091D10502
:1036D0009091D2050A9710F00C94012C2EEF822EB7
:1036E000F12C0BEA10E00C9412088091D105909116
:1036F000D2050A9710F00C949826F12C0C9412081D
:10370000F6FE16C08091CD058F7D8093CD05EE200D
:1037100011F40C94F32580E29091CD05892B8093D0
:10372000CD056091CD056C7680E290E00E94553A1F
:103730000E947E328091CD0581FF45C50AE010E0F0
:10374000F12C0C94D4086AE04AE0C42ED12C07C9AD
:103750008091D1059091D2050A9710F00C94F6252E
:1037600088248394F12C01EA10E00C9412088091D3
:10377000D1059091D2050A9710F00C947A2FF12C74
:1037800003E810E00C9412080E948C060C94EA09DD
:10379000CE0145960E94A903F12C01EA10E00C9499
:1037A000A1110E948C060C946F12CE0145960E94C6
:1037B000A903F12C0BEA10E00C94A11181FFA5C024
:1037C0000AE010E0F12C0C94D40888E0FE017F960A
:1037D000AFE5B6E001900D928A95E1F71D8AAE0142
:1037E0004B5E5F4F61E08EE80E9491308BA11DEC33
:1037F000819F912D1124969596959695919F212DB7
:103800001124269526952695492F3AE0239F4019A5
:103810001124E0E14E9F900111242073FAE09F9F54
:1038200080191124822B8D8BAE014B5E5F4F61E0BE
:1038300086E80E9491309CA1919F812D112486954C
:1038400086958695392F2AE0829F30191124832F7F
:103850009A3010F40C94D92890E1892B8D8BAE010D
:103860004B5E5F4F61E088E80E949130EDA1FEA1C0
:103870009F01ADECBCEC0E941A3AAC0156954795FD
:1038800056954795569547959A010E941A3A9695EE
:10389000879596958795969587959C01220F331F5E
:1038A000880F991F880F991F880F991F820F931FE8
:1038B0009A01281B390B2295207FCA01880F991F76
:1038C000440F551F440F551F440F551F840F951F5C
:1038D000E81BF90BE22BED8BAE014B5E5F4F61E015
:1038E0008CE80E94913080E88D8BAE014B5E5F4F7B
:1038F00061E08EE80E9491308091CD0581FF12C079
:103900000AE010E0F12C0C94D4088091D10590913C
:10391000D2050A9710F00C94DC28F12C0AE010E094
:103920000C9412088091D1059091D2050A9708F065
:103930001FC7F12C0AE010E00C941208960136958E
:10394000279536952795ABE7B4E10E941A3AAC016A
:10395000569547959A01ADECBCEC0E941A3A9695A3
:10396000879596958795969587959C01220F331F8D
:10397000880F991F880F991F880F991F820F931F17
:10398000481B590B4930510511F40C94662FF4E68D
:10399000CF0ED11C8091CD0581FF02C00C94192857
:1039A0008091D1059091D2050A9710F00C945D2F6B
:1039B000F12C05EB10E00C9412088091D105909148
:1039C000D2050A9708F0AEC7F12C09E710E00C9475
:1039D00012088091D1059091D2050A9710F00C94AD
:1039E000A528F12C07E910E00C9412088091CD0570
:1039F00081FF02C00C94C4288091D1059091D2051A
:103A00000A9710F00C94462FF12C04E710E00C9468
:103A100012088091D1059091D2050A9710F00C946C
:103A20002129F12C0AE010E00C9412088091D105B4
:103A30009091D2050A9710F00C945425F12C07E9C7
:103A400010E00C9412088A944FEF8091CD058412F7
:103A50000C94191581FF02C00C949B258091D1050F
:103A60009091D2050A9710F00C944D2C5EEF852EA4
:103A7000F12C01EA10E00C941208CE0145960E9448
:103A8000A90368E0E62EF12C05E610E00C94A111E4
:103A900081FFA6C30AE010E0F12C0C94D408CE01FB
:103AA00045960E94A903F12C0BEA10E00C94A11199
:103AB000CE0145960E94A903F12C58C98091D105E9
:103AC0009091D2050A9710F00C9455273EEF832E63
:103AD000F12C0BEA10E00C9412088091D105909122
:103AE000D2050A9710F00C946C27F12C0DE810E029
:103AF0000C941208F7FE02C00C94252F8091CD057E
:103B000081FF0FC5F12C0C94D408CE0145960E947C
:103B1000A903F12C04E710E00C94A1118091D105C8
:103B20009091D2050A9710F00C943A26F12C05EBEF
:103B300010E00C9412089601ADECBCEC0E941A3A0D
:103B40009695879596958795969587959C01220FD2
:103B5000331F880F991F880F991F880F991F820F95
:103B6000931FF601E81BF90B399711F40C94F72E0B
:103B7000FFEFCF1ADF0A8091CD0581FF02C00C94C0
:103B800060278091D1059091D2050A9710F00C948E
:103B9000EE2EF12C05EB10E00C9412089601ADEC22
:103BA000BCEC0E941A3AAC0156954795569547953C
:103BB000569547959A010E941A3A9695879596953B
:103BC0008795969587959C01220F331F880F991F23
:103BD000880F991F880F991F820F931F481B590B3D
:103BE0004930510511F40C94DC2E3AE0C30ED11C7F
:103BF0008091CD0581FD24C68091D1059091D2059B
:103C00000A9710F00C94D32EF12C05EB10E00C94D5
:103C1000120881FF1CC50AE010E0F12C0C94D408B6
:103C20008F8D90E001966CE370E00E94DE398F8FFB
:103C30008091CD0581FF58C403E810E0F12C0C946D
:103C4000D4088091D1059091D2050A9710F00C9478
:103C50005A28F12C03E810E00C94120828A5E22F52
:103C6000F0E0EE0FFF1FEE0FFF1FEC53FB4FA280A3
:103C7000B380A114B10411F00C94CD2E8091CD0528
:103C800081FD1BC78091D1059091D2050A9710F054
:103C90000C94C62EF12C0C94120881FF9DC401EAED
:103CA00010E0F12C0C94D408CE0145960E94A90393
:103CB000E12CF12C08E810E00C94A11181FF57C30E
:103CC0000AE010E0F12C0C94D40888E0FE017F9605
:103CD000AFE0B7E001900D928A95E1F7682D8FE093
:103CE00097E00E9450018091CD0581FF0AC20AE051
:103CF00010E0F12C0C94D40861E08FE097E00E9472
:103D000070010C946C0DF7FCA8C58091CD0581FD68
:103D1000A1C58091D1059091D2050A9710F00C941D
:103D2000BF2EF12C0C94120881FF19C00AE010E09C
:103D3000F12C0C94D408682D8CE390E00E94553A45
:103D40008CE390E00E944D3A8093D7058091CD0599
:103D500081FF11C00AE010E0F12C0C94D40880918E
:103D6000D1059091D2050A9708F0E5C5F12C0AE03B
:103D700010E00C9412088091D1059091D2050A9719
:103D800010F00C94D028F12C0AE010E00C941208EA
:103D900081FF03C20AE010E018A6F12C0C94D408AD
:103DA0008CA18C3008F08EC48F5F8CA38091CD05E0
:103DB00081FD83C48091D1059091D2050A9710F0BE
:103DC0000C94B62EF12C07E910E00C941208CE01E9
:103DD00045960E94A903F12C07E910E00C94A1116B
:103DE000CE0145960E94A903F12C03E810E00C9443
:103DF000A1118091D1059091D2050A9708F089C64A
:103E0000F12C0DE810E00C9412089601ADECBCEC1E
:103E10000E941A3A969587959695879596958795D7
:103E20009C01220F331F880F991F880F991F880F3D
:103E3000991F820F931FF601E81BF90B399711F4B4
:103E40000C94882EFFEFCF1ADF0A8091CD0581FDFB
:103E50005BC68091D1059091D2050A9710F00C9421
:103E60007F2EF12C0DE810E00C94120888A190E050
:103E700001966CE370E00E94DE3988A38091CD0545
:103E800081FF69C209E710E0F12C0C94D40881FF8E
:103E900089C30AE010E0F12C0C94D4088091D1057C
:103EA0009091D2050A9710F00C946527F12C0C9490
:103EB00012089601369527953695279536952795BC
:103EC000A5ECB0E20E941A3AAC01529542954F70AF
:103ED00045275F7045279A01ADECBCEC0E941A3A69
:103EE0009695879596958795969587959C01220F2F
:103EF000331F880F991F880F991F880F991F820FF2
:103F0000931F481B590B4930510511F40C946C2E2A
:103F100098E1C91A9CEFD90A8091CD0581FD95C41D
:103F20008091D1059091D2050A9710F00C94632EE0
:103F3000F12C05EB10E00C94120888E0FE017F964E
:103F4000AFE5B6E001900D928A95E1F71D8AAE01CA
:103F50004B5E5F4F61E08EE80E9491308F8D1DECCB
:103F6000819F912D1124969596959695919F212D3F
:103F70001124269526952695F92FEAE02E9FF01913
:103F8000112440E1F49F900111242077EAE09E9FE4
:103F900080191124822B8D8BAE014B5E5F4F61E047
:103FA00080E80E94913088A1819F912D11249695DF
:103FB00096959695919F212D1124269526952695C7
:103FC000392FFAE02F9F30191124232F40E1249F2D
:103FD000900111242077EAE09E9F80191124822B02
:103FE0008D8BAE014B5E5F4F61E082E80E949130A5
:103FF00099A1919F412D1124469546954695419F43
:10400000812D1124869586958695242FFAE08F9F21
:104010002019112480E1289F90011124822F8073A0
:10402000EAE04E9F90191124892B8D8BAE014B5ED7
:104030005F4F61E084E80E94913080E88D8BAE0193
:104040004B5E5F4F61E08EE80E9491308091CD051C
:1040500081FF1EC30AE010E0F12C0C94D40880917B
:10406000D1059091D2050A9708F0D4C5F12C09E743
:1040700010E00C9412088091D1059091D2050A9716
:1040800010F00C944128F12C0C9412086AE09AE08C
:10409000C92ED12C0C947C138091D1059091D2051E
:1040A0000A9708F03FC5F12C01EA10E00C941208C1
:1040B000F7FE02C00C94262E8091CD0581FF9EC193
:1040C000F12C0C94D4088091D1059091D2050A97D7
:1040D00008F0C9C5F12C0C941208CE0145960E9437
:1040E000A903F12C0DE810E00C94A111CE01459626
:1040F0000E94A90354E0E52EF12C0FE610E00C9489
:10410000A1118091D1059091D2050A9710F00C94DD
:104110000E29F12C0AE010E00C9412088DA19EA14A
:104120009C012F5F3F4F3EA32DA38B5D97408835A9
:10413000910508F0B7C38091CD0581FDAEC3809194
:10414000D1059091D2050A9710F00C941D2EF12CF8
:1041500007E910E00C941208CE0145960E94A903CD
:10416000F12C0AEF10E00C94A1118091D1059091EF
:10417000D2050A9710F00C948B29F12C04E710E07B
:104180000C941208F7FE02C00C94FC2D8091CD0512
:1041900081FF53C1F12C0C94D4088091D1059091EA
:1041A000D2050A9708F099C718A6F12C0AE010E08A
:1041B0000C9412088091CD0581FF55C004E710E0F2
:1041C000F12C0C94D4088091D1059091D2050A97D6
:1041D00010F00C94F728F12C0AE010E00C9412086F
:1041E0008091D1059091D2050A9708F065C5F12C10
:1041F0000AE010E00C941208CE0145960E94A90333
:10420000F12C0C94A11101EA10E0F12C0C94D408CB
:104210008BA18F3110F00C9446298F5F8BA3809176
:10422000CD0581FF02C00C9441298091D105909168
:10423000D2050A9710F00C94F32DF12C07E910E049
:104240000C94120888A190E001966CE370E00E9443
:10425000DE3988A38091CD0581FF46C003E810E0D8
:10426000F12C0C94D4088091D1059091D2050A9735
:1042700010F00C94DC2DF12C04E710E00C941208E3
:104280008F8D90E001966CE370E00E94DE398F8F95
:104290008091CD0581FF4FC109E710E0F12C0C940E
:1042A000D40889A190E0019668E170E00E94DE39AF
:1042B00089A38091CD0581FF4AC109E710E0F12C67
:1042C0000C94D408F7FE02C00C94BB2D8091CD0550
:1042D00081FF5EC1F12C0C94D40881FF60C00AE01C
:1042E00010E0F12C0C94D4088091D1059091D20566
:1042F0000A9710F00C94B22DF12C03E810E00C9406
:10430000120860E08FE097E00E9470010C946C0D41
:104310006C2D83E090E00E94553A6D2D82E090E094
:104320000E94553A83E090E00E944D3A182F82E0B7
:1043300090E00E944D3A212F30E0382B30931D0140
:1043400020931C018091CD0581FFC2C00AE010E0DE
:10435000F12C0C94D4088091D1059091D2050A9744
:1043600008F091C4F12C09E710E00C941208809138
:10437000D1059091D2050A9708F0DBC7F12C0AE02D
:1043800010E00C9412088091D1059091D2050A9703
:1043900008F0D8C3F12C05EB10E00C9412088091C2
:1043A000D1059091D2050A9710F00C94A92DF12C0B
:1043B0000AE010E00C941208F6FE15C08091CD05BD
:1043C000877F8093CD05EE2009F41BC488E090918F
:1043D000CD05892B8093CD056091CD056C7680E26B
:1043E00090E00E94553A0E947E328091CD0581FF77
:1043F0000FC00AE010E0F12C0C94D4088091D10594
:104400009091D2050A9708F0FEC3F12C0C94120883
:104410008091D1059091D2050A9708F029C7F12C17
:104420000AE010E00C941208CE0145960E94A90300
:10443000F12C09E710E00C94A1118091D105909125
:10444000D2050A9708F0EFC3F12C0C941208809162
:10445000CD05F6FE3BC781FD34C78091D105909113
:10446000D2050A9710F00C94A02DF12C0EE010E06C
:104470000C94120898A59F5F98A78091CD0581FFA5
:10448000DAC00AE010E0F12C0C94D408F6FE15C056
:104490008091CD058F7B8093CD05EE2009F422C756
:1044A00080E49091CD05892B8093CD056091CD0559
:1044B0006C7680E290E00E94553A0E947E328091B4
:1044C000CD0581FF7CC00AE010E0F12C0C94D408EB
:1044D0008091D1059091D2050A9708F0ABC3F12CD9
:1044E0000AE010E00C9412088091D1059091D20559
:1044F0000A9708F0DDC6F12C03E810E00C941208CE
:1045000089A190E0019668E170E00E94DE3989A3FC
:104510008091CD0581FF77C003E810E0F12C0C9469
:10452000D4088091D1059091D2050A9708F099C6D8
:10453000F12C0C9412088091D1059091D2050A9724
:1045400008F081C3F12C09E710E00C941208809167
:10455000D1059091D2050A9710F00C94972DF12C6B
:1045600009E710E00C941208682D80E090E00E94AA
:10457000553A80E090E00E944D3A8093D8058091B2
:10458000CD0581FF4CC00AE010E0F12C0C94D4085A
:104590008091D1059091D2050A9708F07DC3F12C46
:1045A0000C9412088091D1059091D2050A9710F0D1
:1045B0000C948E2DF12C0AE010E00C9412088091DE
:1045C000D1059091D2050A9710F00C94852DF12C0D
:1045D0000AE010E00C9412088091D1059091D20568
:1045E0000A9708F0B6C6F12C01EA10E00C94120804
:1045F000F7FE02C00C94482D8091CD0581FF33C099
:10460000F12C0C94D4088091D1059091D2050A9791
:1046100008F06AC6F12C03E810E00C9412088091AF
:10462000D1059091D2050A9708F03DC3F12C0AE01C
:1046300010E00C9412088091D1059091D2050A9750
:1046400008F099C6F12C0AE010E00C941208809151
:10465000D1059091D2050A9708F037C3F12C0AE0F2
:1046600010E00C9412088091D1059091D2050A9720
:1046700008F068C6F12C0C941208F7FE02C00C94E6
:10468000272D8091CD0581FF0FC0F12C0C94D4080B
:104690008091D1059091D2050A9708F063C6F12C5C
:1046A0000AE010E00C9412088091D1059091D20597
:1046B0000A97D0F4F12C0C94120807E910E0F12CC1
:1046C0000C94D408ECA28091CD0581FD14C080919A
:1046D000D1059091D2050A9710F00C941E2DF12C63
:1046E00007E910E00C941208CE0145960E94A90338
:1046F000F12C0C94A11107E910E0F12C0C94D408D2
:1047000034E1C316D104D8F48091CD0581FD12C0E7
:104710008091D1059091D2050A9710F00C94152D37
:10472000F12C04E710E00C94120803E810E0F12CDF
:104730000C94D40804E710E0F12C0C94D4084AE05F
:10474000C41AD1088091CD0581FD1BC08091D1058F
:104750009091D2050A9710F00C94FE2CF12C04E7EE
:1047600010E00C94120809E710E0F12C0C94D40826
:10477000CE0145960E94A903F12C0AE010E00C94AA
:10478000A11104E710E0F12C0C94D4088091CD0520
:1047900081FD22C08091D1059091D2050A9710F039
:1047A0000C94F32C6EEF862EF12C01EA10E00C94A1
:1047B00012088091CD0581FD16C08091D1059091A0
:1047C000D2050A9710F00C94E82C7EEF872EF12C7E
:1047D00001EA10E00C94120801EA10E07EEF872E47
:1047E000F12C0C94D40801EA10E0EEEF8E2EF12C9F
:1047F0000C94D408CE0145960E94A903E12CF12C1B
:1048000001EB10E00C94A111CE0145960E94A90382
:10481000E12CF12C0FE610E00C94A111CE0145968D
:104820000E94A903F12C0AE010E00C94A111CE0122
:1048300045960E94A903F12C0AE010E00C94A11106
:1048400005EB10E0F12C0C94D40805EB10E0F12CF2
:104850000C94D408F12C0C94D4089CA1E92FF0E01E
:10486000E050FB4F8081923011F40C94DD2C9BA121
:10487000891710F00C94BC2C8091CD0581FD27C0C8
:104880008091D1059091D2050A9710F00C94B32C29
:10489000F12C07E910E00C94120807E910E0F12C64
:1048A0000C94D4088CED97E09EA38DA38091CD0548
:1048B00081FD12C08091D1059091D2050A9710F028
:1048C0000C949C2CF12C07E910E00C94120807E9D9
:1048D00010E0F12C0C94D40807E910E0F12C0C94B2
:1048E000D4088CA1823010F40C948B2C81508CA3B2
:1048F0008091CD0581FD11C08091D1059091D205A7
:104900000A9708F0F6C7F12C07E910E00C9412089A
:1049100004E710E0F12C0C94D40807E910E0F12C26
:104920000C94D408CE0145960E94A903F12C09E706
:1049300010E00C94A111CE0145960E94A903F12C20
:104940000AE010E00C94A1119601ADECBCEC0E94C1
:104950001A3AAC0156954795569547955695479501
:104960009A010E941A3A96958795969587959695FD
:1049700087959C01220F331F880F991F880F991F5D
:10498000880F991F820F931F4817590709F44CC5C8
:104990003AE0C31AD1088091CD0581FDA5C7809169
:1049A000D1059091D2050A9708F0ACC7F12C0DE81B
:1049B00010E00C94120896013695279536952795A8
:1049C00036952795A5ECB0E20E941A3AAC015295B3
:1049D00042954F7045275F7045279A01ADECBCECBE
:1049E0000E941A3A969587959695879596958795FC
:1049F0009C01220F331F880F991F880F991F880F62
:104A0000991F820F931F4817590709F4DEC498EEC7
:104A1000C91A93E0D90A8091CD0581FD60C78091C4
:104A2000D1059091D2050A9708F050C7F12C0DE8F6
:104A300010E00C9412089601369527953695279527
:104A4000ABE7B4E10E941A3AAC01569547959A013A
:104A5000ADECBCEC0E941A3A969587959695879591
:104A6000969587959C01220F331F880F991F880FF9
:104A7000991F880F991F820F931F4817590709F430
:104A800091C4F4E6CF1AD1088091CD0581FD10C7FD
:104A90008091D1059091D2050A9708F00EC7F12CAC
:104AA0000DE810E00C941208CE0145960E94A9036F
:104AB000F12C07E910E00C94A111F12C0C94D4080E
:104AC00088A1882309F4C2C4815088A38091CD05B0
:104AD00081FDC3C68091D1059091D2050A9708F057
:104AE000C1C6F12C09E710E00C94120881FD33C017
:104AF0008091D1059091D2050A9708F0BCC6F12C9F
:104B00000AE010E00C9412080DE810E0F12C0C946F
:104B1000D408CE0145960E94A903F12C0DE810E0BF
:104B20000C94A111CE0145960E94A903F12C01EA33
:104B300010E00C94A11101EA10E06EEF862EF12C2A
:104B40000C94D408CE0145960E94A903F12C05EBE4
:104B500010E00C94A1110AE010E0F12C0C94D408A0
:104B6000CE0145960E94A903F12C04E710E00C94B5
:104B7000A111CE0145960E94A903F12C0C94A1111C
:104B80008F8D882309F493C481508F8F8091CD0538
:104B900081FD42C68091D1059091D2050A9708F017
:104BA00053C6F12C09E710E00C94120889A1882360
:104BB00009F46CC4815089A38091CD0581FD31C673
:104BC0008091D1059091D2050A9708F05DC6F12C2D
:104BD00009E710E00C941208CE0145960E94A90343
:104BE000F12C0C94A11180E00C948C1BCE01459605
:104BF0000E94A90388248394F12C01EA10E00C940C
:104C0000A11180E0E4CBCE0145960E94A903F12CCE
:104C10000C94A111CE0145960E94A903F12C09E73D
:104C200010E00C94A111CE0145960E94A903F12C2D
:104C30000C94A111CE0145960E94A903F12C0AE023
:104C400010E00C94A111CE0145960E94A903F12C0D
:104C500009E710E00C94A111CE0145960E94A9032A
:104C6000F12C0C94A111CE0145960E94A903F12CC0
:104C70000C94A111CE0145960E94A903F12C05EBDD
:104C800010E00C94A111CE0145960E94A903F12CCD
:104C900009E710E00C94A111CE0145960E94A903EA
:104CA000F12C0C94A111CE0145960E94A903F12C80
:104CB0000AE010E00C94A111CE0145960E94A903D0
:104CC000F12C0AE010E00C94A111CE0145960E944F
:104CD000A903F12C0AE010E00C94A111CE01459635
:104CE0000E94A903F12C0BEA10E00C94A111CE0153
:104CF00045960E94A903F12C0C94A111CE01459672
:104D00000E94A90340E2E42EF12C08E810E00C9484
:104D1000A111CE0145960E94A903F12C0C94A1117A
:104D20000DE810E0F12C0C94D40880E00C94411AAA
:104D3000CE0145960E94A903F12C0C94A1110BEA17
:104D400010E03EEF832EF12C0C94D40804E710E021
:104D5000F12C0C94D408CE0145960E94A903F12CA5
:104D600004E710E00C94A111CE0145960E94A9031E
:104D7000F12C0C94A111CE0145960E94A903F12CAF
:104D80000AE010E00C94A1110DE810E0F12C0C9455
:104D9000D40807E910E0F12C0C94D4080DE810E0D9
:104DA000F12C0C94D4088DA19EA18D3D27E0920793
:104DB00008F4F3C301979EA38DA307E910E0F12C3B
:104DC0000C9406088BA1823008F40AC581508BA38D
:104DD0008091CD0581FDA1C18091D1059091D20531
:104DE0000A9708F0F4C4F12C07E910E00C941208BB
:104DF0008F8D882309F429C481508F8F8091CD0530
:104E000081FDD7C48091D1059091D2050A9708F011
:104E1000D5C4F12C03E810E00C941208CE0145969D
:104E20000E94A903F12C0C94A111CE0145960E9479
:104E3000A903F12C0C94A11162E08FE097E00E948D
:104E400070010C946C0D0DE810E0F12C0C94D4085A
:104E50009601ADECBCEC0E941A3A96958795969512
:104E60008795969587959C01220F331F880F991F70
:104E7000880F991F880F991F820F931FC816D90694
:104E800009F479C381E0C81AD1088091CD0581FD6C
:104E900082C48091D1059091D2050A9708F080C410
:104EA000F12C0DE810E00C941208CE0145960E94FA
:104EB000A9030EEF802EF12C0BEA10E00C94A11147
:104EC00005EB10E0F12C0C94D408CE0145960E941D
:104ED000A903F12C0C94A111CE0145960E94A903BF
:104EE000F12C0DE810E00C94A1119601ADECBCEC96
:104EF0000E941A3AAC015695479556954795569596
:104F000047959A010E941A3A9695879596958795A6
:104F1000969587959C01220F331F880F991F880F44
:104F2000991F880F991F820F931F4817590709F47B
:104F300076C33AE0C31AD10805EB10E0F12C0C94CB
:104F40000608960136952795369527953695279527
:104F5000A5ECB0E20E941A3AAC01529542954F700E
:104F600045275F7045279A01ADECBCEC0E941A3AC8
:104F70009695879596958795969587959C01220F8E
:104F8000331F880F991F880F991F880F991F820F51
:104F9000931F4817590709F42FC398EEC91A93E0D5
:104FA000D90A05EB10E0F12C0C9406089601369511
:104FB000279536952795ABE7B4E10E941A3AAC01E4
:104FC000569547959A01ADECBCEC0E941A3A96951D
:104FD000879596958795969587959C01220F331F07
:104FE000880F991F880F991F880F991F820F931F91
:104FF0004817590709F496C2F4E6CF1AD10805EB11
:1050000010E0F12C0C94060805EB10E0F12C0C9448
:105010000608CE0145960E94A903F12C0AE010E093
:105020000C94A111CE0145960E94A903F12C0C9479
:10503000A11105EB10E0F12C0C94D40881FD13C0F4
:105040008091D1059091D2050A9708F09BC3F12C6D
:105050000AE010E00C941208CE0145960E94A903C4
:10506000F12C0C94A1110AE010E0F12C0C94D4085E
:10507000CE0145960E94A903F12C0AE010E00C94A1
:10508000A111CE0145960E94A903F12C0C948A111E
:105090000E947E328091CD0581FD15C08091D105A1
:1050A0009091D2050A9708F064C3F12C00E010E05B
:1050B0000C941208CE0145960E94A903F12C03E836
:1050C00010E00C94A11100E010E0F12C0C94D40835
:1050D00004E710E0F12C0C94D408CE0145960E9410
:1050E000A90318A6F12C0AE010E00C94A11189A1E3
:1050F000882309F4E8C2815089A38091CD0581FD00
:1051000018C38091D1059091D2050A9708F016C373
:10511000F12C03E810E00C94120807E910E0F12CE0
:105120000C94D40881E0C81AD1088091CD0581FD86
:10513000FBC08091D1059091D2050A9708F007C372
:10514000F12C04E710E00C941208CE0145960E9461
:10515000A903F12C07E910E00C94A11188A1882380
:1051600009F484C2815088A38091CD0581FDDCC201
:105170008091D1059091D2050A9708F0F1C2F12CE7
:1051800003E810E00C94120804E710E0F12C0C94F2
:10519000D40800E010E099249394F12C0C94D408E6
:1051A000CE0145960E94A903F12C0AE010E00C9470
:1051B000A11190E00C942D1CCE0145960E94A903EC
:1051C000F12C0AE010E00C94A1110E947E32809133
:1051D000CD0581FD15C08091D1059091D2050A972A
:1051E00008F099C2F12C00E010E00C941208CE01F6
:1051F00045960E94A903F12C0AE010E00C94A1113D
:1052000000E010E0F12C0C94D408CE0145960E94E9
:10521000A903F12C01EA10E00C94A111CE014596EE
:105220000E94A903F12C0AE010E00C94A111CE0118
:1052300045960E94A903E12CF12C05E610E00C94A0
:10524000A111CE0145960E94A903F12C0AE010E0BD
:105250000C94A111CE0145960E94A903F12C0C9447
:10526000A111CE0145960E94A903F12C0C94A11125
:10527000CE0145960E94A903F12C0AE010E00C949F
:10528000A11107E910E0F12C0C94D40881E08BA364
:105290008091CD0581FD78C08091D1059091D20596
:1052A0000A9708F021C2F12C07E910E00C941208CB
:1052B000CE0145960E94A903F12C03E810E00C945E
:1052C000A1110EE010E0F12C0C94D40881FD15C062
:1052D0008091D1059091D2050A9708F0D2CEF12C99
:1052E0000C94120880E0DDC8CE0145960E94A90307
:1052F000F12C03E810E00C94A111F12C0C94D408CB
:10530000CE0145960E94A90388248394F12C01EADA
:1053100010E00C94A111CE0145960E94A903F12C36
:1053200004E710E00C94A11104E710E0F12C0C94B8
:10533000D408CE0145960E94A903F12C0AE010E0A2
:105340000C94A111CE0145960E94A903F12C0C9456
:10535000A111CE0145960E94A903F12C01EA10E0AB
:105360000C94A111CE0145960E94A903F12C0AE0EC
:1053700010E00C94A111CE0145960E94A903F12CD6
:105380000AE010E00C94A11107E910E0F12C0C9454
:10539000D408CE0145960E94A903F12C09E710E03C
:1053A0000C94A1112CE7C21A2CEFD20A8091CD05E2
:1053B00081FD27C08091D1059091D2050A97C0F454
:1053C000F12C0DE810E00C941208E8EDCE1AECED8B
:1053D000DE0A8091CD0581FD22C08091D10590919A
:1053E000D2050A9798F4F12C0DE810E00C941208FD
:1053F000CE0145960E94A903F12C0DE810E00C9413
:10540000A1110DE810E0F12C0C94D408CE014596C2
:105410000E94A903F12C0DE810E00C94A1110DE8F5
:1054200010E0F12C0C94D4084AE5C40ED11C8091F4
:10543000CD0581FD26C08091D1059091D2050A97B6
:10544000B8F4F12C0DE810E00C9412088BE388A35B
:105450008091CD0581FD53C08091D1059091D205F9
:105460000A9708F043C0F12C09E710E00C941208E9
:10547000CE0145960E94A903F12C0DE810E00C9492
:10548000A1110DE810E0F12C0C94D40887E189A358
:105490008091CD0581FD25C08091D1059091D205E7
:1054A0000A97B0F4F12C09E710E00C9412088BE392
:1054B0008F8F8091CD0581FD30C08091D105909175
:1054C000D2050A9708F5F12C09E710E00C941208B0
:1054D000CE0145960E94A903F12C09E710E00C9437
:1054E000A11109E710E0F12C0C94D408CE014596E7
:1054F0000E94A903F12C09E710E00C94A11109E71F
:1055000010E0F12C0C94D408CE0145960E94A9031A
:10551000F12C09E710E00C94A11109E710E0F12C3F
:105520000C94D4082CE7C21A2CEFD20A8091CD0536
:1055300081FD1CC08091D1059091D2050A9768F435
:10554000F12C05EB10E00C94120899E0C90ED11C67
:1055500005EB10E0F12C0C940608CE0145960E9454
:10556000A903F12C05EB10E00C94A11105EB10E060
:10557000F12C0C94D40899E0C90ED11C8091CD0572
:1055800081FD27C08091D1059091D2050A97C0F482
:10559000F12C0DE810E00C94120883E398E09EA330
:1055A0008DA38091CD0581FD22C08091D105909180
:1055B000D2050A9798F4F12C07E910E00C94120830
:1055C000CE0145960E94A903F12C0DE810E00C9441
:1055D000A1110DE810E0F12C0C94D408CE014596F1
:1055E0000E94A903F12C07E910E00C94A11107E92E
:1055F00010E0F12C0C94D408E8EDCE1AECEDDE0AA4
:105600008091CD0581FD1CC08091D1059091D2057E
:105610000A9768F4F12C05EB10E00C9412084AE5A7
:10562000C40ED11C05EB10E0F12C0C940608CE0141
:1056300045960E94A903F12C05EB10E00C94A111F2
:1056400005EB10E0F12C0C94D4088BE38F8F809144
:10565000CD0581FD25C08091D1059091D2050A9795
:10566000B0F4F12C03E810E00C9412088BE388A34B
:105670008091CD0581FD22C08091D1059091D20508
:105680000A9798F4F12C03E810E00C941208CE016C
:1056900045960E94A903F12C03E810E00C94A11197
:1056A00003E810E0F12C0C94D408CE0145960E943A
:1056B000A903F12C03E810E00C94A11103E810E019
:1056C000F12C0C94D40887E189A38091CD0581FD4C
:1056D0001DC08091D1059091D2050A9770F4F12CEC
:1056E00003E810E00C941208CE0145960E94A9032D
:1056F000F12C07E910E00C94A111CE0145960E940F
:10570000A903F12C03E810E00C94A11103E810E0C8
:10571000F12C0C94D408CE0145960E94A903F12CDB
:1057200000E010E00C94A11103E810E0F12C0C94BF
:10573000D40803E810E0F12C0C94D408CE0145966F
:105740000E94A903F12C03E810E00C94A111CE01F2
:1057500045960E94A903F12C04E710E00C94A111D6
:10576000CE0145960E94A903F12C03E810E00C94A9
:10577000A111CE0145960E94A903F12C00E010E092
:105780000C94A111CE0145960E94A903F12C0AE0C8
:1057900010E00C94A1110DE810E0F12C0C94D40849
:1057A000CE0145960E94A903F12C0DE810E00C945F
:1057B000A11103E810E0F12C0C94D408CE01459619
:1057C0000E94A903F12C03E810E00C94A111CE0172
:1057D00045960E94A903F12C07E910E00C94A11151
:1057E0008FE18BA38091CD0581FD29C08091D105EA
:1057F0009091D2050A97D0F4F12C07E910E00C94AF
:105800001208CE0145960E94A9031EEF812EF12CAD
:105810000BEA10E00C94A11109E710E0F12C0C94B4
:10582000D40809E710E0F12C0C94D408CE01459679
:105830000E94A903F12C07E910E00C94A11107E9DB
:1058400010E0F12C0C94D408CE0145960E94A903D7
:10585000F12C09E710E00C94A11109E710E0F12CFC
:105860000C94D408CE0145960E94A903F12C09E7B7
:1058700010E00C94A111CE0145960E94A903F12CD1
:105880000AE010E00C94A111CE0145960E94A903F4
:10589000F12C09E710E00C94A111CE0145960E946D
:1058A000A9039EEF892EF12C01EA10E00C94A111BE
:1058B0000DE810E0F12C0C94D408CE0145960E941E
:1058C000A903F12C0DE810E00C94A111CE0145962E
:1058D0000E94A903F12C0DE810E00C94A1110DE831
:1058E00010E0F12C0C94D4080DE810E0F12C0C948D
:1058F000D408CE0145960E94A903F12C07E910E0D7
:105900000C94A111CE0145960E94A903F12C0DE83B
:1059100010E00C94A1118CE08CA38091CD0581FD49
:105920001DC08091D1059091D2050A9770F4F12C99
:1059300007E910E00C941208CE0145960E94A903D5
:10594000F12C07E910E00C94A111CE0145960E94BC
:10595000A903F12C07E910E00C94A11107E910E06C
:10596000F12C0C94D408CE0145960E94A903F12C89
:1059700007E910E00C94A11162E080E00E94563229
:1059800081E391E00E94A63228E032E049E252E051
:1059900065E471E08DE092E00E941E068091CD05E5
:1059A00081FD3EC08091D1059091D2050A9778F58E
:1059B000F12C09E910E00C9412082DA13EA12370EE
:1059C0003327232B11F00C9437248F5F0C9437244A
:1059D000CE0145960E94A9033EEF832EF12C01EAE9
:1059E00010E00C94A111CE0145960E94A9032EEF60
:1059F000822EF12C01EA10E00C94A111CE01459603
:105A00000E94A903F12C04E710E00C94A111CE012F
:105A100045960E94A903F12C09E910E00C94A1110C
:105A200009E910E0F12C0C94D408CE0145960E94AF
:105A3000A903F12C04E710E00C94A111CE014596C6
:105A40000E94A903F12C07E910E00C94A11162E077
:105A500080E00E94563281E391E00E94A63228E065
:105A600032E049E252E065E471E08DE092E00E94AC
:105A70001E068091CD0581FD35C08091D1059091A4
:105A8000D2050A9730F5F12C07EB10E00C941208C0
:105A900062E080E00E94563281E391E00E94A632EB
:105AA00028E032E049E252E065E471E08DE092E006
:105AB0000E941E068091CD0581FD22C08091D105F6
:105AC0009091D2050A9798F4F12C0BE710E00C9412
:105AD0001208CE0145960E94A903F12C07EB10E0B5
