:100000000C9427040C9446040C9446040C94460467
:100010000C9446040C9446040C9446040C94460438
:100020000C9446040C9446040C9446040C94460428
:100030000C9446040C9446040C9446040C94460418
:100040000C9446040C9446040C9446040C94460408
:100050000C94652B0C94612C0C9446040C9446046F
:100060000C9446040C9446040C94742A0C94460494
:100070000C9446040C94D4230C9446040C9446042B
:100080000C9449050C9446040C944604EE0D60153E
:100090001E0EE90AE90AE90AE90AE90AE90AE90A8F
:1000A0009B108310E90AE90A33101C10E90AE90AD7
:1000B000E90AE90AE90AE90AE90AE90AE90AE90AA8
:1000C000E90AE90AE90AE90AE90AE90AE90AE90A98
:1000D000E90AE90AE90AE90AE90AE90AE90AE90A88
:1000E000E90AE90AE90AE90AE90AE90AE90AE90A78
:1000F000E90AE90AE90AE90AE90AE90AE90AE90A68
:10010000E90AE90AE90AE90AE90AE90AE90AE90A57
:10011000E90AE90AE90AE90AE90AE90AE90AE90A47
:10012000E90AE90AE90AE90AE90AE90AE90AE90A37
:10013000E90AE90AE90AE90AE90AE90AE90AE90A27
:10014000E90AE90AE90AE90AE90AE90AE90AE90A17
:10015000E90AE90A820D9A0D2E15E90AE90AE90A67
:10016000E90AE90AE90AE90AB80DD00DF016E90A28
:10017000E90A0116B1151B13E912E90A14167E12D9
:10018000C616BD16E90AE90AE90AEB165A15AA16B7
:100190002B16B016F60F8814E90AB00EC80E320FEF
:1001A000E90AE90A9E14E60E76159314E90AE90AAB
:1001B000E90AE90AE90AE90AAE0CF90C8E11821182
:1001C000E90AE90AE90AE90AE90AE90A6C114211AD
:1001D0002B111D11E90AE90AE90AE90AE90AE90A03
:1001E000A70F7E0F6B0F5D0FE90AE90A780C900CE0
:1001F0000815E90AF514FD11C2114D12E90AE90AC0
:10020000E90AE90AE90AE90AE90AE90AE90AE90A56
:10021000E90AE90AE90AE90AE90AE90AE90AE90A46
:10022000E90AE90AE90AE90AE90AE90AE90AE90A36
:10023000E90AE90AE90AE90AE90AE90AE90AE90A26
:10024000E90AE90AE90AE90AE90AE90AE90AE90A16
:10025000E90AE90AE90AE90AE90AE90AE90AE90A06
:10026000E90A2412DD0FCD0FE90AE90AE90AE90AD1
:10027000E90AE90AE90A80144E144314E90AE90A72
:100280004D13E90A5515C32A8E2A8E2A8E2A8E2AE4
:100290008E2A8E2A8E2AC32A8E2A8E2A8E2A8E2A69
:1002A0008E2A8E2A8E2AC52A8E2A8E2A8E2A8E2A57
:1002B0008E2A8E2A8E2AEC2A8E2A8E2A8E2A8E2A20
:1002C0008E2A8E2A8E2AC52A8E2A8E2A8E2A8E2A37
:1002D0008E2A8E2A8E2AEC2A8E2A8E2A8E2A8E2A00
:1002E0008E2A8E2A8E2AF52A8E2A8E2A8E2A8E2AE7
:1002F0008E2A8E2A8E2AB52A8E2A8E2A8E2A8E2A17
:100300008E2A8E2A8E2AEC2A8E2A8E2A8E2A8E2ACF
:100310008E2A8E2A8E2AA92A8E2A8E2A8E2A8E2A02
:100320008E2A8E2A8E2AF92A43616C6C204E6174C3
:1003300068616E00436F6465206F666620696E2099
:100340006C616C616C616E64004241434B00005310
:1003500041564500434E434C00202B2B2000202DBE
:100360002D2000203E3E200020474F20002020204E
:1003700020202020202020202000207365630054AE
:10038000656D702F48756D2054696D656F75743A91
:10039000004241434B00005341564500434E434CFD
:1003A00000202B2B2000202D2D2000203E3E200061
:1003B00020474F2000202020202020202020202007
:1003C000200020202000542F48204F6666005465EE
:1003D0006D702F48756D6964697479204164647229
:1003E0003A005B205D2044656772656573204300B9
:1003F0005B205D204465677265657320460020467A
:1004000020200020432020005341564500434E4306
:100410004C0054656D706572617475726520556E1F
:10042000697473004241434B0000534156450043F9
:100430004E434C00202B2B2000202D2D2000203E51
:100440003E200020474F20004D61737465722043A9
:100450006C6F636B20416464723A004241434B000D
:10046000005341564500434E434C00202B2B2000A7
:10047000202D2D2000203E3E200020474F200054FC
:10048000696D6520506B7420496E74657276616C7D
:100490003A005265626F6F7400646F6E6500454587
:1004A00050524F4D2E2E2E20005245534554544944
:1004B0004E472E2E2E0000594553210000434E4337
:1004C0004C002020202045564552595448494E475B
:1004D0003F202020202000202020205245414C4C4D
:1004E0005920455241534520202020005945532191
:1004F000000000434E434C0074696D657320746FB7
:1005000020636F6E6669726D005072657373205957
:100510004553206E206D6F726500434C454152205B
:10052000414C4C2053455454494E47533F00000022
:10053000004241434B00202B2B2000202D2D20007A
:100540005341564500434E434C005365636F6E6400
:10055000733A20004261636B6C6967687420546968
:100560006D656F7574004241434B00005341564521
:1005700000434E434C00202B2B2000202D2D20002B
:10058000203E3E200020474F2000466173742053D8
:10059000746172742054696D65004241434B0000E0
:1005A0005341564500434E434C002020202020203C
:1005B00020202000202B2B2000202D2D2000203E4D
:1005C0003E200020474F200043757272656E7420F4
:1005D0005265616C2054696D653A004241434B009D
:1005E000005341564500434E434C00202B2B200026
:1005F000202D2D2000203E3E200020474F200020AF
:1006000020202000202020200045525220002020C1
:10061000202000444154450020205E5E005E5E5E66
:10062000005E5E002020202020202020202020208E
:10063000002032300043757272656E74205265611D
:100640006C20446174653A004241434B00005341C1
:10065000564500434E434C00202B2B2000202D2DCF
:100660002000203E3E200020474F20002020202058
:100670002020202020202020004661737420436C1D
:100680006F636B20526174696F3A005B205D204894
:100690004F4C44005B205D2052554E0052554E0099
:1006A000484F4C44005341564500434E434C00468E
:1006B000617374205374617274204D6F6465005BC4
:1006C000205D203234482028303030306829005BEB
:1006D000205D203132482028414D2F504D290031D6
:1006E0003268720032346872005341564500434EFE
:1006F000434C00466173742054696D652031322F7C
:100700003234483A005B205D2032344820283030B3
:1007100030306829005B205D203132482028414D6F
:100720002F504D2900313268720032346872005304
:1007300041564500434E434C0000205550200000D8
:10074000444F574E00534C4354004241434B0074B6
:100750006F2057686963682053746172742054690C
:100760006D653F0052657365742046617374204364
:100770006C6F636B00212120434F4E4649524D2040
:10078000212100323400504D00414D0032340050E0
:100790004D00414D0046415354005245414C00002C
:1007A000484F4C440052554E000052535400434FA2
:1007B0004E460020207777772E69617363616C6500
:1007C000642E636F6D202000496F77612053636151
:1007D0006C656420456E67203230323100205363EF
:1007E000616C6520436C6F636B2053797374656D26
:1007F0000020202020205061636553657474657269
:100800000020202020202020202020202020202008
:100810002020202020001F1F1F0000001F1F1F1F5F
:100820001F1F1F1F1E1C00000000001F1F1F1F1F77
:100830001F1F1F1F0F071C1E1F1F1F1F1F1F1F1FF4
:100840001F0000000000070F1F1F1F1F1F1F112484
:100850001FBECFEFD0E4DEBFCDBF13E0A0E0B1E01C
:10086000E2E2F8E700E00BBF02C007900D92AA3E5B
:10087000B107D9F725E0AAEEB3E001C01D92A93E69
:10088000B207E1F70E942C0A0C940F3C0C94000074
:100890008FE390E00E94F93B8A3008F008956FEFF3
:1008A0008FE390E00E94013C8FEF089560E180E0CB
:1008B00090E00E94013C64E183E090E00E94013CF2
:1008C00060E082E090E00E94013C6CE680E290E013
:1008D0000E94013C66E080E390E00E94013C60E001
:1008E00081E390E00E94013C60E082E390E00E949E
:1008F000013C6CE083E390E00E94013C60E084E313
:1009000090E00E94013C60E085E390E00E94013CA1
:1009100062E186E390E00E94013C60E087E390E0C2
:100920000E94013C60E088E390E00E94013C68E2A4
:100930008BE390E00E94013C60E08AE390E00E943B
:10094000013C60E08CE390E00E94013C68E58EE3AE
:1009500090E00E94013C62E08DE390E00E94013C47
:100960006FEF8FE390E00C94013CCF93DF93CDB712
:10097000DEB728970FB6F894DEBF0FBECDBF1B823F
:100980001A8219821C8284EE97E098878F8381E017
:100990008D838E830E94F527CE0101960E949F29A8
:1009A000CE0101960E941228CE0101960E947D2858
:1009B0000E94560428960FB6F894DEBF0FBECDBF36
:1009C000DF91CF9108950F931F93CF93DF938C0105
:1009D000C62FCC0F6C0FC62FD0E0FC016281CE0178
:1009E000C0960E94013CF8016181CE01C1960E942F
:1009F000013CF8016081CE01C296DF91CF911F9139
:100A00000F910C94013CDF92EF92FF920F931F9392
:100A1000CF93DF93EC011A82198218821B8284EE35
:100A200097E09F838E8381E08C838D83162F110F37
:100A3000160FE12EF12CC701C0960E94F93B082F3A
:100A40008A83C701C1960E94F93BD82E8983C701CA
:100A5000C2960E94F93B8883083118F49BE39D15E8
:100A600070F41A8219821882612FCE01DF91CF9122
:100A70001F910F91FF90EF90DF900C94E3048C3363
:100A800080F7DF91CF911F910F91FF90EF90DF9052
:100A900008951F920F920FB60F9211240BB60F926A
:100AA0002F933F934F935F936F937F938F939F9376
:100AB000AF93BF93EF93FF938091EC0380FF05C04A
:100AC0009091F80391609093F8039091EB039F5FEE
:100AD0009093EB03943638F09091F80396609093DE
:100AE000F8031092EB038F5F8093EC038A30A8F039
:100AF0008091F80380688093F8031092EC03809152
:100B0000F90382718230F1F08091FC039091FD0332
:100B100001969093FD038093FC030E94BE36FF91E3
:100B2000EF91BF91AF919F918F917F916F915F9165
:100B30004F913F912F910F900BBE0F900FBE0F90D2
:100B40001F90189540911A0150911B01E091FA03F2
:100B5000F091FB039A01ADECBCEC0E94283796950E
:100B600087959695879596958795E80FF91FF09349
:100B7000FB03E093FA039C01220F331F880F991F98
:100B8000880F991F880F991F820F931F481B590BBD
:100B90008091EA03480F4093EA034B3008F4B4CF46
:100BA0008091FA039091FB0301969093FB0380934D
:100BB000FA034A504093EA03A7CF1F93CF93DF93E2
:100BC000CDB7DEB7A8970FB6F894DEBF0FBECDBF86
:100BD00020E044E1BE016B5E7F4F8DED95E00E9409
:100BE000DA2E882351F0809101049E89981729F00C
:100BF0009D899F3F61F0891751F0A8960FB6F89430
:100C0000DEBF0FBECDBFDF91CF911F9108952F8919
:100C1000222309F456C010E040E050E09DEF910F10
:100C2000923060F0E5E1F0E0EC0FFD1FE10FF11D07
:100C30006081CA010E94AB2DAC012F891F5F121782
:100C400068F3652F7727898D90E086179707A9F6B7
:100C50005527888D90E04817590779F68A8D813499
:100C600009F455C0873591F1823509F462C08335A6
:100C700021F69E89809100049813BFCF2A3008F492
:100C8000BCCF8B8D90E0982F88272C8D820F911DE3
:100C90000E9444236093F4037093F5038093F6035A
:100CA0009093F7038D8D8093F3038E8D8093F203E1
:100CB00080912001909121019093FF038093FE0386
:100CC0009CCF60E070E040E050E0BDCF8E8989832A
:100CD00088E08B8387E78E838B8D6C8D90E00E94FC
:100CE000013C8B8D8F839C8D988781113AC080E069
:100CF00090E00E94F93B809301048A834B81BE01FE
:100D00006F5F7F4F83EE95E00E94632E76CF8E89D2
:100D10008983809101048A8386E08B8381E68E83B8
:100D200046E0BE016F5F7F4F83EE95E00E94632E29
:100D300064CF8E898983809101048A8388E08B83C4
:100D400082E78E838B8D8F8390E00E94F93B8887AA
:100D500048E0BE016F5F7F4F83EE95E00E94632EF7
:100D60004CCF80910104C9CF55988BB1806A8BB963
:100D7000579A85B1806E85B984B1806A84B9269806
:100D800082E58CBD81E08DBD089587B1837C87B9F4
:100D900088B18C6388B981B1877E81B982B188615D
:100DA00082B90F98179A54985C9A089526B12C73BB
:100DB00030E03595279535952795039B28C080E031
:100DC00091E0282B392B049B28C040E052E0242BD3
:100DD000352B4C9B28C040E054E0C901842B952B57
:100DE00040B1042E000C550B9A012227330F221F0D
:100DF0003327322F2227330F330F330F282B392B72
:100E00004D9914C080E090E0822B932B089580E0F0
:100E100090E0282B392B0499D8CF40E050E0242BC8
:100E2000352B4C99D8CF40E050E0D7CF80E090E10F
:100E3000822B932B08950F931F93CF9314BEA895E5
:100E40009EE088E10FB6F894A895809360000FBEED
:100E500090936000249A0E94C5060E94B4060E94E6
:100E6000072B0E94B223A895249A2C9A8CE00E940A
:100E7000EE240E94A42460E080E00E947C24109272
:100E800095001092940082E597E0909399008093EA
:100E90009800109290008BE0809391001092920045
:100EA000C19A809171008260809371001092FD035D
:100EB0001092FC031092FB031092FA038BE390E074
:100EC0000E94F93BC82F8AE390E00E94F93B90E032
:100ED000982F88278C0F911D9C0121503109273EA6
:100EE000334010F088E290E090931B0180931A0148
:100EF0007894109297041092960410929504109290
:100F0000980404EE17E010939C0400939B04C1E046
:100F1000C0939904C0939A0485E994E00E94EE2856
:100F2000109247051092460510924505109248050B
:100F300010934C0500934B05C0934905C0934A0597
:100F400085E495E00E94F429882309F45FC080E2DB
:100F500090E00E94F93B8093F9038CE390E00E94BB
:100F6000F93B8F3F09F458C080930004682F8CE34D
:100F700090E00E94013C8EE390E00E94F93BC82F74
:100F80008DE390E00E94F93B2C2F30E0A901582B13
:100F9000CA019A012A5031092630374210F088E5FB
:100FA00092E0909321018093200180E090E00E94E4
:100FB000F93B8093010483E090E00E94F93BC82F45
:100FC00082E090E00E94F93B2C2F30E0A901582BE1
:100FD000CA010097A1F08F3F5FEF950711F484E1FC
:100FE00090E090931D0180931C010E94480480931F
:100FF0001E0180931F01CF911F910F91089581E0F1
:1010000090E090931D0180931C01EFCF60E085E498
:1010100095E00E9403059BCF1092000480E0A6CFCC
:101020006AE080E00E94572760E081E00E94572735
:101030006BE082E00E9457276CE083E00C94572716
:101040000F931F93CF938C01FC01C281662329F07B
:10105000C11149C0C2E061E017C08DECC89F912D5D
:101060001124969596959695989F612D11246695D5
:1010700066956695292FFAE06F9F20191124622F3B
:101080008AE0989FC019112480E00E9457276C2F96
:1010900081E00E945727F8016181CDEC6C9F612DA2
:1010A00011246695669566956C9F812D1124869511
:1010B00086958695FAE08F9F6019112482E00E9440
:1010C0005727F80161816C9FC12D1124C695C695E3
:1010D000C695FAE0CF9F6019112483E0CF911F914C
:1010E0000F910C945727CD30E0F4CA3010F46DE026
:1010F000CBCF8DECC89F912D112496959695969502
:10110000989F612D1124669566956695892F2AE032
:10111000629F80191124682FEAE09E9FC019112454
:10112000B3CFCC50E2CF0E942E270E94A42460E0CF
:1011300080E00E947C2460E080E00E947C2481EFBB
:1011400097E00E94DC2461E080E00E947C248DED29
:1011500097E00E94DC2462E080E00E947C2488EC1E
:1011600097E00E94DC2463E080E00E947C2483EB13
:1011700097E00E94DC2484E1A8952FE739EA93E008
:10118000215030409040E1F700C000008150A1F7AD
:101190000C94A424AF92BF92CF92DF92EF92FF9271
:1011A0000F931F93CF935C016B017A01890163E078
:1011B00080E00E947C24C4E180E20E94AA24C15005
:1011C000D9F763E080E00E947C24C5010E94DC2402
:1011D00063E085E00E947C24C6010E94DC2463E079
:1011E0008AE00E947C24C7010E94DC2463E08FE037
:1011F0000E947C24C801CF911F910F91FF90EF9026
:10120000DF90CF90BF90AF900C94DC24CF93DF930E
:10121000EC0162E089E00E947C248C810E94AD2672
:101220008DE20E94AA24ED81F0E0EE0FFF1FE05056
:10123000FF4F808191810E94CC2485E391E00E9440
:10124000CC244E815F819A01369527953695279556
:10125000ABE7B4E10E94283796958795342F24E6B2
:10126000829F30191124832FDF91CF910C94DC26BB
:10127000CF938091F90386FF35C020E030E040E154
:1012800051E46091F4037091F5038091F60390911D
:10129000F7030E94853820E030E040EA50E40E94E5
:1012A00056370E94C837C0E2C60F62E089E00E944C
:1012B0007C248C2F0E94D4258FED0E94AA2480913B
:1012C000F90386FD1BC083E40E94AA2480E20E94E9
:1012D000AA248091F3030E94D42589E391E0CF9161
:1012E0000C94CC246091F4037091F5038091F60383
:1012F0009091F7030E94C837C62FD7CF86E4E4CF7A
:10130000CF93DF93EC0162E080E00E947C24809127
:10131000F903807349F18CE391E00E94CC24809121
:10132000F90382FF29C09A818BEA989F812D1124AD
:10133000869586958695282F220F820F880F880F15
:10134000981B892F69F10E94AD2689810E94DC26B5
:101350008091F90382FF1AC08A818C30E0F481E425
:10136000DF91CF910C94AA2480E491E00E94CC24D8
:101370008091F90382FDD7CF8A810E94DC26898182
:101380000E94DC268091F90382FDE6CF88E6DF919A
:10139000CF910C94AA2480E5DF91CF910C94AA24DC
:1013A0008CE0D1CF1F93CF93DF93EC01162F62E037
:1013B00089E00E947C2480E20E94AA241123A1F1EA
:1013C0009A818BEA989F812D112486958695869522
:1013D000282F220F820F880F880F981B892F09F45E
:1013E0008CE00E94AD268AE30E94AA2489810E9493
:1013F000DC268AE30E94AA2488810E94DC268A8156
:101400008C3048F080E50E94AA248DE4DF91CF91D2
:101410001F910C94AA2481E40E94AA248DE4DF91F8
:10142000CF911F910C94AA248A810E94DC268AE322
:101430000E94AA2489810E94DC268AE30E94AA24B1
:1014400088810E94DC2680E20E94AA2480E2DF914B
:10145000CF911F910C94AA24CF93DF93CDB7DEB721
:10146000C557D2400FB6F894DEBF0FBECDBF83E0A4
:10147000CF59DD4F8883C156D240CE59DD4F888386
:10148000C256D240CD59DD4F8883C356D240CC5985
:10149000DD4F8883C456D2400E941B0744E06DE9AB
:1014A00074E083EE95E00E943D2E44E061EF74E02D
:1014B0008DED95E00E943D2E0E94942C0E94930891
:1014C000A89580E090E0DC0188248A94982CC85983
:1014D000DD4F19821882C856D240C659DD4F198295
:1014E0001882CA56D240512CD12C00E0C359DD4F8E
:1014F00019821882CD56D240612C712C10E0312C0B
:10150000C459DD4F1882CC56D240C159DD4F1882E4
:10151000CF56D240412C9E01205D3D4FCB59DD4F2F
:1015200039832883C556D240AA24A394B12C39E12B
:10153000C32E48E1242EC959DD4F5882C756D240E8
:101540000196A11DB11D8093ED039093EE03A0932E
:10155000EF03B093F003A8958DED95E00E94532E14
:1015600081110C94B6178091F80382FF0CC0809112
:10157000F8038B7F8093F80380911F0181110C94F5
:10158000D617249A2C988091F80380FF02C00C94FF
:1015900027178091F80387FF02C00C94BA177401D3
:1015A000EE2460E1F62294FE02C00C94161741105E
:1015B0000C941E17C959DD4F7881C756D24073303D
:1015C00010F40C941518852D90E08D3F910508F4CA
:1015D0008AC161E080E00E947C2484E393E00E9461
:1015E000DC2462E080E00E947C2488E293E00E9498
:1015F000DC24EFB7F8948091F90381FF04C0809157
:10160000F90384FFC9C0EFBF8091F80381FD24C1B5
:101610004FB7F8942091FC033091FD0380911C0199
:1016200090911D012817390758F02091FC03309143
:10163000FD03281B390B3093FD032093FC0311E0BD
:101640004FBF112309F499C08091E505811195C020
:101650008091F903869581709091F90394FD8260E1
:101660009091F90393FD84609091F90392FD886055
:1016700090910104CA5BDD4F9883C654D2409FEF1E
:10168000CB5BDD4F9883C554D24092E1C95BDD4FFF
:101690009883C754D24094E5C65BDD4F9883CA5403
:1016A000D24090919704C55BDD4F9883CB54D240D4
:1016B00090919604C45BDD4F9883CC54D2409091B6
:1016C0009504C35BDD4F9883CD54D240C25BDD4FA0
:1016D0008883CE54D24080914705C15BDD4F88831B
:1016E000CF54D24080914605C05BDD4F8883C05502
:1016F000D24080914505CF5ADD4F8883C155D240F5
:1017000080911A0190911B01CE5ADD4F9883C255EA
:10171000D240CD5ADD4F8883C355D24080919B047F
:1017200090919C049C01329522952F7023273F7045
:101730002327CC5ADD4F2883C455D24090919A0478
:101740009F708295807F892BCB5ADD4F8883C5554A
:10175000D24080919904CA5ADD4F8883C655D24041
:1017600042E1BE016B5B7D4F83EE95E00E94632EEC
:1017700010E003C0A8950E94C02C83EE95E00E9463
:10178000532E8111F7CF8091ED039091EE03A0913C
:10179000EF03B091F003D4CE8091FA039091FB0354
:1017A0000A9708F430CF2091FA033091FB03ADEC97
:1017B000BCEC0E94283796958795969587959695C7
:1017C00087959C01332780914505A901480F511D3C
:1017D000CA01409146058C3391053CF04F5FCC9790
:1017E0008C339105D8F74093460580934505809149
:1017F00047054C3340F08F5F4C534C33E0F78093F8
:10180000470540934605883158F09BEA899F912D02
:10181000112492959F70929D801911248093470501
:101820008091FA039091FB0366EF6203A001639F2E
:10183000500D1124840F951F9093FB038093FA039E
:101840008FEF850D823008F0DECE62E0562EEFBFBE
:101850008091F80381FFDCCE8091F8038D7F809327
:10186000F80385E994E00E94EE2851E0551650F007
:1018700062E0651510F00C94F4177CEF571202C06B
:101880002AEF522E6091ED037091EE038091EF03E9
:101890009091F00328EE33E040E050E00E94FD36E6
:1018A000C359DD4F39832883CD56D2408091FE0342
:1018B0009091FF03009729F001979093FF03809385
:1018C000FE038091F1038F5F883010F00C94DF17D6
:1018D0008093F1031092ED031092EE031092EF0348
:1018E0001092F00395CEFC01EA5BFF4F0C941F377A
:1018F0008091F9038870382E0E94A42460E080E073
:101900000E947C2482E194E00E94DC242DE034E0FB
:1019100048E054E063E074E08EEF93E00E94CA0870
:1019200061E080E00E947C2480EF93E00E94DC2450
:1019300062E080E00E947C2482EE93E00E94DC243E
:10194000332011F40C94521861E081E00E947C2451
:101950008AE20E94AA2452EB552E4BCE88E0E5E99C
:10196000F4E0DE01A75ABD4F01900D928A95E1F790
:10197000C25ADD4FE881CE55D2408FEF8E0F8C30AA
:1019800010F00C94A81AF0E0EF5AFC4F8081C35A73
:10199000DD4F9881CD55D240911106C091E0C35AD8
:1019A000DD4F9883CD55D240891728F4C35ADD4FB7
:1019B0008883CD55D240C15ADD4F88819981CF555A
:1019C000D240805D97408436910540F08CED97E0E1
:1019D000C15ADD4F99838883CF55D2400E94A424F9
:1019E00060E080E00E947C2485E396E00E94DC2495
:1019F000312C61E080E00E947C24C35ADD4F888155
:101A0000CD55D2400E94AD2680E20E94AA24C25A3F
:101A1000DD4FE881CE55D240F0E0EE0FFF1FE050E1
:101A2000FF4F808191810E94CC2481E396E00E9447
:101A3000DC24C15ADD4F48815981CF55D2409A01EB
:101A40003695279536952795ABE7B4E10E94283760
:101A500096958795742F64E6869F70191124872FB9
:101A60000E94DC2662E080E00E947C2484E296E012
:101A70000E94DC2481E0381611F40C94C519381644
:101A800010F40C942F1992E0391208C062E087E03C
:101A90000E947C2488E196E00E94DC24C25ADD4F3B
:101AA0008881CE55D240E82FF0E0EF5AFC4F2081DC
:101AB000823011F40C94D419C35ADD4F8881CD556E
:101AC000D240281710F00C943B1861E08FE00E9480
:101AD0007C2483E196E00E94DC2462E08FE00E9497
:101AE0007C2489E096E00E94DC242FEF35E045EF6E
:101AF00055E060EF75E08BEE95E00E94CA08A8E91A
:101B00005A2E77CD8091F9038870382E0E94A42434
:101B100060E080E00E947C2486E591E00E94CC2475
:101B200024E337E04FE257E06AE277E085E297E0AE
:101B30000E94CA0861E080E00E947C2485E197E071
:101B40000E94DC2462E080E00E947C2485E097E033
:101B50000E94DC24332011F40C94351861E081E0FC
:101B60000E947C248AE20E94AA2446E6542E41CD9B
:101B70008091F9038470382E0E94A42460E080E0F4
:101B80000E947C2483EF96E00E94DC242EEE36E057
:101B900049EE56E064EE76E08FED96E00E94CA08CA
:101BA00061E080E00E947C248FEC96E00E94DC24BF
:101BB00062E080E00E947C248FEB96E00E94DC24AF
:101BC000332011F40C94381861E081E00E947C24E9
:101BD0008AE20E94AA2420E7522E0BCD61E080E128
:101BE0000E947C248091F90381FD02C00C945C1951
:101BF00084E491E00E94CC248091F90381FD02C02D
:101C00000C9458194AEA57E08091F90381FD02C00B
:101C10000C9454198091F90384FD02C00C94371C74
:101C200065EA77E08091F90381FD02C00C945019B8
:101C30008AE997E02EEA37E00E94CA0860E080E176
:101C40000E947C248091F90381FD02C00C945818F5
:101C50008091F90382FD02C00C94AC1C8091470571
:101C60008C3010F00C94A81C82E997E00E94DC24D0
:101C70008091F90384FD02C00C9440190E94100861
:101C800085E495E00E949F2980910004882361F0FB
:101C90008091FE039091FF03892B31F08091F10335
:101CA000843010F00C94F71F6091F903687085E997
:101CB00094E00E94D20962E080E00E947C2480EEE1
:101CC00091E00E94CC2462E081E00E947C2420917B
:101CD0001A0130911B01ADECBCEC0E94283796959F
:101CE000879596958795969587950E94AD268EE265
:101CF0000E94AA2440911A0150911B019A01ADEC57
:101D0000BCEC0E9428379695879596958795969571
:101D100087959C01220F331F880F991F880F991FE9
:101D2000880F991F820F931FFA01E81BF90BCF014F
:101D3000805D0E94AA248EE491E00E94CC2460E0A1
:101D400083E10E947C2441100C948B18EF2811F041
:101D50000C94551883E50E94AA245524539449CC29
:101D60008091F9038072382E0E94A42460E080E004
:101D70000E947C248FEA96E00E94DC242AEA36E066
:101D800045EA56E060EA76E08CE996E00E94CA08EF
:101D900061E080E00E947C2484E996E00E94DC24DB
:101DA00062E080E00E947C248BE896E00E94DC24C4
:101DB000332011F40C944F1862E081E00E947C24DF
:101DC0008AE20E94AA2489E8582E13CC61E080E0C0
:101DD0000E947C249301ADECBCEC0E9428377C016E
:101DE000F694E794F694E794F694E794C7010E947A
:101DF0006A258EE20E94AA249701220F331FC70191
:101E0000880F991F880F991F880F991F820F931FA2
:101E10009301281B390BC901805D0E94AA2487ED1C
:101E200091E00E94CC2462E080E00E947C248CED52
:101E300091E00E94CC2433E03312D2C562E084E00A
:101E40000E947C248EE50E94AA242AE734E045E71C
:101E500054E060E774E08BE694E00E94CA08EEE884
:101E60005E2EC7CB00FF02C00C94881901FF02C090
:101E70000C94471B802F8C7011F40C94441B02FFB0
:101E800016C08091F9038F7D8093F903332011F4FC
:101E90000C94681E80E29091F903892B8093F903DA
:101EA0006091F9036C7680E290E00E94013C0E9410
:101EB000A4240AE0502E00E09CCB00FF02C00C944A
:101EC000F41902FF02C00C94052303FF02C00C9416
:101ED0003A1B00E08ECB802F817111F40C94F9191C
:101EE00031100C94B11B30E1D30E4FEF9BEA592E09
:101EF000D41611F40C943F1B00E07BCBF2E0FF2ED4
:101F0000F30C61E080E0D1103AC00E947C2486ECA2
:101F100093E00E94DC2462E080E00E947C2485EB58
:101F200093E00E94DC2462E08F2D0E947C248EE5E9
:101F30000E94AA2420EB33E04BEA53E066EA73E008
:101F400081EA93E00E94CA082CEA522E52CBD0902C
:101F500000042FEFD21202C0DD24D3940E94A424E7
:101F600060E080E00E947C248EEC93E00E94DC2400
:101F700032E0F32E312C61E080E0DD2031F20E946E
:101F80007C2489EE91E00E94CC248D2D0E94362580
:101F900082EC93E00E94DC24BECF802F817111F48B
:101FA0000C94B11A79EF7D1510F40C946F1C8AE033
:101FB000D80E4CEE542E00E01CCB61E08AE00E946B
:101FC0007C24D1100C94E91885E0EDE6F1E0DE0107
:101FD000A05DBD4F01900D928A95E1F7CE01805D25
:101FE0009D4F0E94CC245DEE552E03CB802F817136
:101FF00011F40C94F61A91E0391611F40C94332173
:10200000391610F40C94C921E2E03E120C94AC1B7A
:10201000C75ADD4F8881C955D24090E001966CE3E4
:1020200070E00E94E936C75ADD4F8883C955D24017
:1020300033E8532E00E0DDCA802F877011F40C9432
:10204000CF1900FF02C00C94A92201FF02C00C941A
:102050001C2302FF02C00C9415230E94A424512CBF
:1020600011E000E0C6CA0E94A42460E083E00E9460
:102070007C2485E797E00E94DC2461E082E00E94F6
:102080007C2484E697E00E94DC2462E080E00E94E9
:102090007C248FE497E00E94DC2463E080E00E94CF
:1020A0007C24B4E1FB2E80E20E94AA24FA94F11071
:1020B000FACFE12C6E2DCE018B5B9D4F0E94030564
:1020C00063E08F2D0E947C24C95BDD4F8881C7545B
:1020D000D2400E94DC26CA5BDD4F8881C654D240C4
:1020E0000E94DC26E394F5E0FF0E23E0E212E2CF4B
:1020F00063E08FE00E947C2481E591E00E94CC2483
:10210000AFE05A2E76CA802F817111F40C942E1AEA
:10211000C459DD4F4881CC56D240442311F40C946D
:10212000741C4150C459DD4F4883CC56D2407AE0EC
:10213000572E00E05ECA0E94A424C459DD4F3881A6
:10214000CC56D240303110F00C941F1960E477E087
:1021500031110C94211989E397E02AE437E045E432
:1021600057E00E94CA088BEAC459DD4F4881CC561B
:10217000D240489F812D11248695982F990F890F61
:10218000682F70E0CE58DD4F79836883C257D24004
:10219000CB01880F991F860F971FFC01E25EFC4F51
:1021A000C059DD4FF983E883C057D240E12CF12CB0
:1021B000242F30E0CC58DD4F39832883C457D240D8
:1021C0005E2CCE58DD4F88819981C257D2408E0D4A
:1021D0009F1D81319105C8F4CC58DD4F488159814C
:1021E000C457D2408417950711F40C945E1C652DDA
:1021F00082E00E947C24C059DD4FE881F981C057FC
:10220000D240808191810E94CC24FFEFEF1AFF0A17
:10221000C059DD4F28813981C057D2402D5F3F4FD3
:10222000C059DD4F39832883C057D24033E0E316CD
:10223000F10431F6EBE05E2EDCC900FF02C00C9425
:102240000C1A02FF02C00C94BC2203FF02C00C94C3
:10225000B01C00E0CEC9802F817111F40C94111ACA
:1022600031100C94B41B80E1D80E9FEFB1EA5B2EC5
:10227000D91611F40C94BB1BDD2011F40C94C01B77
:1022800000E0B7C9E2E0FE2EF30C61E080E00E94BE
:102290007C2489EE91E00E94CC248D2D0E9436256D
:1022A00062E080E00E947C248CED91E00E94CC24CE
:1022B00062E08F2D0E947C248EE50E94AA2423E4F4
:1022C00034E04EE354E069E374E084E394E00E9478
:1022D000CA0882EA582E8DC9D09001048FEF8D0D67
:1022E0008E3F10F0DD24D3940E94A42460E080E0AF
:1022F0000E947C2488E494E00E94DC2492E0F92E81
:10230000312CC3CF00FDA6C702FF02C00C942C1DC8
:1023100003FF02C00C94B51C00E06BC9802F8171D3
:1023200011F40C94451AE1E03E1611F40C942A20A5
:102330003E1610F40C947022F2E03F120C94771BBE
:10234000C15ADD4F88819981CF55D2409C012F5FC2
:102350003F4FC15ADD4F39832883CF55D2408B5D23
:1023600097408835910510F40C9423238CED97E069
:10237000C15ADD4F99838883CF55D24057E9552EF6
:1023800000E037C9802F817109F4C8C771E03716A2
:1023900011F40C94401F371610F40C94F91E82E0CF
:1023A000381611F40C94CC1E93E039120C94761E5E
:1023B0009301ADECBCEC0E942837969587959695D5
:1023C0008795969587959C01220F331F880F991F3B
:1023D000880F991F880F991F820F931FB301681BE5
:1023E000790B6930710511F40C94601E7FEF671A48
:1023F000770AF5EB5F2E00E0FCC861E080E00E9408
:102400007C24C3010E9414268AE793E00E94DC2406
:1024100062E080E00E947C248DE693E00E94DC2450
:1024200062E0832D0E947C248EE50E94AA2428E687
:1024300033E043E653E06EE573E089E593E00E9404
:10244000CA08E6EB5E2ED5C80E94A42484E595E078
:102450000E94DC2461E081E00E947C248AE495E013
:102460000E94DC2462E08AE00E947C2488E691E0FD
:102470000E94CC24D0901E013FEFD31201C0D12C7A
:1024800025E435E040E455E06BE375E086E395E054
:102490000E94CA086CEE562EACC8E02FE170FE2EEA
:1024A00000FF02C00C946A1A02FD02C00C94131CB7
:1024B000C3010A978630974210F00C940D1C662DCC
:1024C000F72C8EE390E00E94013C6F2D8DE390E0AD
:1024D0000E94013C8EE390E00E94F93B082F8DE3BF
:1024E00090E00E94F93B202F30E0382B30932101FF
:1024F000209320012AE0522E00E07BC8F32CFF0C31
:10250000F30C23EC35E04EEB55E069EB75E084EB22
:1025100095E00E94CA0861E080E00E947C248091DE
:10252000F90383FD02C00C949F1AC55ADD4F9881B0
:10253000CB55D2408BEA989F812D112486958695A4
:102540008695282F220F820F880F880F981B892FBE
:1025500009F48CE00E94AD268AE30E94AA24C65AA0
:10256000DD4F8881CA55D2400E94DC268AE30E9452
:10257000AA24C75ADD4F8881C955D2400E94DC2663
:1025800080E20E94AA248091F90383FF0EC0C55AFD
:10259000DD4F8881CB55D2408C3008F056C781E49E
:1025A0000E94AA248DE40E94AA2462E080E00E9496
:1025B0007C248AEA95E00E94DC2462E08F2D0E9450
:1025C0007C248AE691E00E94CC24EAE75E2E0C94FB
:1025D000F90A202F2170F22E00FD3BC702FD02C038
:1025E0000C94621BC3010197873E934010F00C943A
:1025F0005C1B662DF72C8BE390E00E94013C6F2D55
:102600008AE390E00E94013C8BE390E00E94F93B5A
:10261000082F8AE390E00E94F93B90E0982F8827EA
:10262000800F911D90931B0180931A014AE0542E54
:1026300000E00C94F90A802F817109F450C733200F
:1026400011F40C94831C21E032120C947E1C930133
:10265000ADECBCEC0E9428379695879596958795AA
:10266000969587959C01220F331F880F991F880F1D
:10267000991F880F991F820F931FB301681B790B55
:102680006930710511F40C94791C7FEF671A770A91
:1026900024E7522E00E00C94F90A0E94B027909192
:1026A000F90396FF0AC0E9E08E02C001112465E03B
:1026B00070E00E94E93680E2860FC359DD4F288121
:1026C000CD56D240C259DD4F3881CE56D240C35983
:1026D000DD4F48815981CD56D240483E534010F0DD
:1026E00027EE33E09091F90396FF7EC796E43F937F
:1026F0002F931F929F93282F082E000C330B3F938C
:102700008F93809101041F928F9388E791E09F93AC
:102710008F931F9285E18F93CA59DD4FF881C6567A
:10272000D240FF93CB59DD4F2881C556D2402F931D
:102730000E9402390E94A42460E080E00E947C2470
:10274000CE01805D9D4F0E94CC240FB6F894DEBF71
:102750000FBECDBF8091FE039091FF03892B09F43A
:102760000EC720910004222309F409C7EF2809F4B9
:10277000A1C76DE293FE9CC75DE292FE97C74DE252
:1027800091FE8FC73DE290FE8FC78DE29091F203DC
:102790001F926F931F925F931F924F931F923F93CD
:1027A0001F928F938DEC989F812D1124869586958D
:1027B00086955AE0859F901911241F929F931F922E
:1027C0008F931F922F9360E971E07F936F931F9215
:1027D00085E18F93CA59DD4F9881C656D2409F93A9
:1027E000CB59DD4FE881C556D240EF930E940239A4
:1027F0000FB6F894DEBF0FBECDBF61E080E00E944F
:102800007C24CE01805D9D4F0E94CC241F921F929C
:102810001F9282E08F931F9289E28F938AED8F93AC
:102820008FEB8F932AEC31E03F932F931F9285E13A
:102830008F93CA59DD4F5881C656D2405F93CB590A
:10284000DD4F6881C556D2406F930E94023962E025
:1028500080E00E947C24CE01805D9D4F0E94CC24AC
:1028600021E335E040E355E06FE275E08EE295E06C
:102870000E94CA080FB6F894DEBF0FBECDBF8CEF22
:10288000582E0C94F90A00FFD2C6332009F4A1C7D0
:102890003A9476EF572E00E00C94F90A60E080E05D
:1028A0000E947C248AE195E00E94DC2461E03320D0
:1028B00009F438C481E00E947C2489E095E00E94FC
:1028C000DC2462E081E00E947C2488EF94E00E9496
:1028D000DC2461E08BE00E947C2480E3830D0E9475
:1028E000AA2423EF34E042EF54E061EF74E08CEE71
:1028F00094E00E94CA08F7EF5F2E00E00C94F90AFA
:102900000E94A424A6EF5A2EB5E03B2E0C94F90A9F
:1029100000FD7DC402FF02C00C94D41C03FDA2C7BD
:1029200000E00C94F90A00FD5AC502FF02C00C94A5
:10293000E62203FDCCC600E00C94F90A80911C014C
:1029400090911D01009711F481E090E03C0190E12D
:10295000691697E2790620F05FE0652E57E2752E42
:102960000E94A42460E080E00E947C248FE794E031
:102970000E94DC2461E080E00E947C249301ADECA5
:10298000BCEC0E9428377C01F694E794F694E79417
:10299000F694E794C7010E946A258EE20E94AA2459
:1029A0009701220F331FC701880F991F880F991FA6
:1029B000880F991F820F931FF301E81BF90BCF01BA
:1029C000805D0E94AA2487ED91E00E94CC2462E001
:1029D00080E00E947C248CED91E00E94CC24312C7C
:1029E00062E0832D0E947C242DCA609020017090AB
:1029F00021010E94A42460E080E00E947C248FE7F3
:102A000093E00E94DC24F5EB5F2E312C0C94F90A44
:102A100000FD2FC401FD96C7802F8C7009F417C7E5
:102A200002FF15C08091F9038F7B8093F903332057
:102A300009F4CEC780E49091F903892B8093F903C0
:102A40006091F9036C7680E290E00E94013C0E9464
:102A5000A4244AE0542E00E00C94F90A00FD19C4A5
:102A600001FD67C7802F8C7009F469C702FF16C08B
:102A70008091F903877F8093F903332011F40C943C
:102A8000C22088E09091F903892B8093F90360912B
:102A9000F9036C7680E290E00E94013C0E94A4243D
:102AA0003AE0532E00E00C94F90A03FD59C300E00C
:102AB0000C94F90A92E8592EDD24D3940C94F90A67
:102AC00000FFAAC39091F90382E089278093F9035C
:102AD0008091F90385FF25C78091F9038061809378
:102AE000F903512C11E000E00C94F90A802F817158
:102AF00009F43BC341E0341609F4C2C7341610F49C
:102B00000C94B01F52E0351611F40C94831F63E04F
:102B100036120C940B209301ADECBCEC0E942837CC
:102B20009695879596958795969587959C01220F02
:102B3000331F880F991F880F991F880F991F820FC5
:102B4000931FA301481B590B4930510511F40C94F4
:102B500003205FEF651A750AFDE85F2E00E00C9414
:102B6000F90A61E080E00E947C249301ADECBCECAA
:102B70000E9428377C01F694E794F694E794F69443
:102B8000E7948E2D0E94DC268EE20E94AA249701F3
:102B9000220F331FC701880F991F880F991F880FB5
:102BA000991F820F931FF301E81BF90BCF01805D82
:102BB0000E94AA248EE491E00E94CC2462E080E08E
:102BC0000E947C248CE696E00E94DC24332009F4E9
:102BD0001BC6F1E03F1207C062E083E00E947C2444
:102BE0008EE50E94AA2427E636E042E656E06DE52F
:102BF00076E088E596E00E94CA0875E7572E0C94A7
:102C0000F90A60901A0170901B010E94A42460E0F0
:102C100080E00E947C2489E796E00E94DC24B4E7EF
:102C20005B2E312C0C94F90A88E0E5E9F4E0DE0132
:102C3000A75ABD4F01900D928A95E1F70E94A424F6
:102C400060E080E00E947C2488EC95E00E94DC2417
:102C5000F12C312C56CC6D2DCE01875A9D4F0E9400
:102C600003050E94A42460E080E00E947C248AE89E
:102C700095E00E94DC2481E38D0D0E94AA248AE362
:102C80000E94AA24F12C312C25E835E040E855E0DB
:102C90006BE775E086E795E00E94CA0861E080E096
:102CA0000E947C248091F90382FF91C3C55ADD4FB5
:102CB0009881CB55D2408BEA989F812D112486951F
:102CC00086958695282F220F820F880F880F981BD4
:102CD000892F09F48CE00E94AD268AE30E94AA2481
:102CE000C65ADD4F8881CA55D2400E94DC268AE34D
:102CF0000E94AA24C75ADD4F8881C955D2400E943C
:102D0000DC2680E20E94AA248091F90382FF0EC093
:102D1000C55ADD4F8881CB55D2408C3008F053C363
:102D200081E40E94AA248DE40E94AA2462E080E04B
:102D30000E947C248FED91E00E94CC2462E08F2DD4
:102D40000E947C248AE691E00E94CC2464E8562EFE
:102D50000C94F90A72E8572EE2E0DE2E0C94F90A80
:102D60008BEA389E812D11248695982F990F890F13
:102D7000381AF32CFF0CF30C87CF00FD66C202FD5E
:102D800057C603FD07C600E00C94F90A802F817135
:102D900009F49DC251E0351611F40C94B71E351696
:102DA00010F40C94D12262E036125FC4C75ADD4F92
:102DB0008881C955D24090E001966CE370E00E9492
:102DC000E936C75ADD4F8883C955D24059E7552E99
:102DD00000E00C94F90AA2E85A2ED12C0C94F90ABE
:102DE00000FD6EC201FD4AC5802F8C7009F443C5F9
:102DF00002FF15C08091F9038B7F8093F903332084
:102E000009F445C784E09091F903892B8093F90375
:102E10006091F9036C7680E290E00E94013C0E9490
:102E2000A4249AE0592E00E00C94F90AC959DD4F08
:102E30001882C756D240412C0C94E30AC959DD4F81
:102E40001882C756D240442443940C94E30A8091DC
:102E5000F8038E7F8093F8030E94D6068825992573
:102E6000C859DD4F28813981C856D240C659DD4F37
:102E700048815981CA56D24024273527C859DD4F89
:102E800048815981C856D24040955095BC01622373
:102E90007323C659DD4F79836883CA56D240FC013B
:102EA000E423F523C859DD4FF983E883C856D2409F
:102EB0009B012E2B3F2B2095309582239323882630
:102EC000992694012095309582239323082F8823F7
:102ED00059F020911F01211103C0007F249A2C9AE0
:102EE00080911E0180931F01FE01EF59FD4F80E08C
:102EF00090E0202F30E0082E02C0359527950A94E7
:102F0000E2F720FF17C0C0829501082E02C0220FF1
:102F1000331F0A94E2F728213921232B49F428E1B1
:102F20002083019631968430910519F70C94C90AD3
:102F3000C082F7CF9501082E02C0220F331F0A94DA
:102F4000E2F728213921232B99F7208121110C94B4
:102F500010209C012C5F3F4FA50102C0440F551F5C
:102F60002A95E2F7042B55E05083DBCF0E94DD0564
:102F70000C94B30A8091F8038F778093F80390FC48
:102F800028C06FEF81E090E00E940F246FEF82E095
:102F900090E00E940F2491FC16C06FEF83E090E058
:102FA0000E940F240E9418240C94CF0A81508E3F57
:102FB00011F40C94C30A80931F010C94C30A10925D
:102FC000F1030C946A0C60E083E090E00E940F240F
:102FD000E9CF60E081E090E00E940F2460E082E0B1
:102FE00090E00E940F24D7CFC159DD4F8881CF5682
:102FF000D240853A89F145EAF42EE5EAC159DD4F20
:10300000E883CF56D24060E087E00E947C248F2D79
:103010000E94AA2461E087E00E947C248F2D0E94F8
:10302000AA2432E0532E0C94420C41E068EE71E089
:10303000CE0101960E94A733882309F4FFCEC95917
:10304000DD4F8881C756D2408F5FC959DD4F8883D5
:10305000C756D2400C94E30A50E2F52E90E2C159D3
:10306000DD4F9883CF56D240CECF62E00C94AF0DA7
:1030700062E00C94E50D61E08FE00E947C248EE01C
:1030800096E00E94DC2462E08FE00E947C2484E0D1
:1030900096E00E94DC242AEF35E00C94770D61E085
:1030A0000C94DD0E62E00C94A50C80E20C94AB0E47
:1030B0008091F90383FF3AC4809197048C3008F023
:1030C000EDC289E897E00E94DC246091F903687002
:1030D00085E994E00E94200880910004882359F03B
:1030E0008091FE039091FF03892B29F08091F103D9
:1030F000843008F085C785E994E00E94060985E4DC
:1031000095E00E94800960E083E10E947C244420D5
:1031100011F40C94A60E8DE40E94AA245524539415
:103120000C94F90A80E00E947C2487ED94E00E94D0
:10313000DC2462E080E00E947C2482EC94E00E9427
:10314000DC242DEB34E04CEB54E067EB74E086EBD1
:1031500094E00E94CA08E7EF5E2E00E00C94F90AA2
:103160002AE0522E00E00C94F90A802F827209F4B2
:1031700006C471E0371609F447C5371608F4FFC4D2
:1031800082E0381609F4D0C493E039124CC493019C
:10319000ADECBCEC0E94283796958795969587955F
:1031A000969587959C01220F331F880F991F880FD2
:1031B000991F880F991F820F931F6816790609F4CB
:1031C0002AC461E0661A71086DE8562E00E00C947E
:1031D000F90A1F92DF9282E791E09F938F931F92EB
:1031E00085E18F93CA59DD4F4881C656D2404F932F
:1031F000CB59DD4F5881C556D2405F930E940239AA
:103200000FB6F894DEBF0FBECDBF0C94EE0F63E88F
:10321000562E00E00C94F90A03FD1AC28091F903BE
:1032200081FF0DC201FF0BC29091F90380E1892754
:103230008093F903512C11E000E00C94F90A6FE33C
:1032400077E08AE397E00C94AD10A9E75A2E00E0EE
:103250000C94F90A97E9592E00E00C94F90A62E0FF
:1032600080E00E947C2481E296E00E94DC240C94A1
:103270004E0D41EB542E50E4352E00E00C94F90A2B
:103280006091F903647085E495E00E9420080C9435
:10329000400EE5E65E2EF8E03F2E00E00C94F90AC1
:1032A00085E997E00C941A0E6FE977E00C94120E02
:1032B00049EA57E00C94040E89E491E00C94FA0D6D
:1032C0005FE6552E64E0362E00E00C94F90A802F5C
:1032D000827209F4D9C271E0371609F400C73716B3
:1032E00008F4DCC482E03812D4C4C75ADD4F8881A8
:1032F000C955D240882309F4EEC48150C75ADD4F26
:103300008883C955D24089E7582E00E00C94F90A09
:1033100038E8532E312C00E00C94F90A802F827289
:1033200009F4EAC191E0391611F40C949C21391684
:1033300010F40C942B22E2E03E1611F40C940022BF
:10334000F3E03F12C7C69301ADECBCEC0E942837F6
:103350009695879596958795969587959C01220FCA
:10336000331F880F991F880F991F880F991F820F8D
:10337000931F6816790609F4A5C681E0681A7108DA
:1033800075EB572E00E00C94F90A62E083E00E948E
:103390007C248DE196E00E94DC240C944E0D03FD0C
:1033A00070C400E00C94F90AC15ADD4F88819981FC
:1033B000CF55D24083709927892B11F00C945C0D66
:1033C0002F5F0C945C0D80E50E94AA24ACCCC55AFA
:1033D000DD4F8881CB55D2400E94DC267ECCBDE8F3
:1033E0005B2E00E00C94F90A8BEA582E00E00C9456
:1033F000F90A802F827209F46FC131100C94B02247
:1034000050EFD50E6FEF8BEA582ED61611F40C94B0
:10341000B72200E00C94F90A71EA572E00E00C94F0
:10342000F90A802F827209F4B5C13110D0C7E0EFDC
:10343000DE0EFFEFA1EA5A2EDF1609F478C7DD2071
:1034400009F4A3C100E00C94F90A80E50E94AA24C3
:10345000A9C874E7572E00E00C94F90A802F8272F5
:1034600009F45FC1C459DD4F5881CC56D240503168
:1034700008F052C15F5FC459DD4F5883CC56D2402B
:103480006AE0562E00E00C94F90A802F827209F44B
:10349000CFC121E0321609F4C3C6321608F460C663
:1034A00032E0331258C6C15ADD4F88819981CF5519
:1034B000D2408D3D47E0940708F42DC40197C15ACE
:1034C000DD4F99838883CF55D24087E9582E00E09D
:1034D0000C94F90AF5EB5F2E00E00C94F90A802FAA
:1034E000827209F4E0C1332009F420C681E0381269
:1034F00018C69301ADECBCEC0E94283796958795D1
:1035000096958795969587959C01220F331F880F76
:10351000991F880F991F880F991F820F931F681694
:10352000790609F4EEC5F1E06F1A710819F4662402
:103530006394712CE4E75E2E00E00C94F90AC55AFE
:10354000DD4F8881CB55D2400E94DC260C94AC1212
:1035500081E0C25ADD4F8883CE55D2408FE10C9472
:10356000C70C802F827209F439C1DD2009F41DC116
:1035700096EFD90E3CEE532E00E00C94F90AEF289A
:1035800009F4ABC14DE293FEA6C13DE292FEA1C19A
:103590002DE291FE9CC19DE290FEDCC08DE21F9267
:1035A0004F931F923F931F922F931F929F931F92AF
:1035B0008F9340EB51E05F934F931F9285E18F9380
:1035C000CA59DD4F7881C656D2407F93CB59DD4F23
:1035D0008881C556D2408F930E9402390FB6F89465
:1035E000DEBF0FBECDBF09C993E481C8802F8272B0
:1035F00009F4E0C0F1E03F1609F450C63F1608F4A4
:10360000A3C322E032129BC3C75ADD4F8881C9553C
:10361000D240882309F47BC68150C75ADD4F888386
:10362000C955D240B3E85B2E00E00C94F90A01FFC3
:10363000A1C1332009F4CEC100E00C94F90A8091B5
:10364000F90381FF0FC002FDA7C700E00C94F90A3F
:103650008AE0582EC459DD4F1882CC56D24000E083
:103660000C94F90A00E00C94F90A09E7502E00E0E6
:103670000C94F90A0AE0502E00E00C94F90A2EEF9F
:10368000D22E00E00C94F90A00E00C94F90A98E8B4
:10369000592E20E2322E00E00C94F90A86E897E0D9
:1036A00012CD32E390FC71C881E370C841E468C870
:1036B00052E463C863E45EC868E258E2652E712C88
:1036C0000C94FB1203FD23C000E00C94F90AAAE05D
:1036D0005A2E00E00C94F90A02FF14C781E0830D12
:1036E0008170382E0BEA502E00E00C94F90A57E94D
:1036F000552E00E00C94F90A02FFAAC781E0830D61
:103700008370382E55EB552E00E00C94F90A6AE0D0
:10371000562E00E00C94F90AAAE05A2E00E00C9410
:10372000F90A03FD8FC502FF9AC0C459DD4F6881B5
:10373000CC56D240862F90E09C01220F331F820F7F
:10374000931FFC01E25EFC4F02810111A1C500E064
:103750000C94F90A81E323CFE3E85E2E00E00C9499
:10376000F90AD3940C94750FD3949FEFB1EA5B2EB2
:10377000D9120C943C11FEEFDF2E00E00C94F90AF4
:10378000DD24D39400E00C94F90ADD24D39400E006
:103790000C94F90A02FF94C581E0830D8170382EE4
:1037A000E1EA5E2E00E00C94F90A3CEE532E00E0B4
:1037B0000C94F90A02FFB6C5832D90E0019663E0F0
:1037C00070E00E94E936382EF3E85F2E00E00C949A
:1037D000F90A96EF592E00E00C94F90A02FF96C2FE
:1037E000D11002C0DD24DA946D2D8FE390E00E94A9
:1037F000013C0E94480480931E0180931F012AE02F
:10380000522E00E00C94F90A62E080E00E947C24D1
:103810008AE691E00E94CC24E6C96AE03AE0632E91
:10382000712C0C94611203FD15C000E00C94F90A90
:1038300002FFABC4832D90E0019663E070E00E942C
:10384000E936382EB7E95B2E00E00C94F90A00E067
:103850000C94F90AEAE05E2E00E00C94F90A00E00C
:103860000C94F90A5AE0552E00E00C94F90A60EA2B
:1038700077E00C94120E00E00C94F90A4FE6542EF7
:10388000312C00E00C94F90A02FFF6C3832D90E07E
:10389000019663E070E00E94E936382EB9E75B2EAE
:1038A00000E00C94F90A02FFA6C381E0830D817049
:1038B000382E74E7572E00E00C94F90A6E2D80E044
:1038C0000E947C248EE30E94AA240C94F71092E3B9
:1038D00063CE21E45ECE32E459CE43E454CE4CEEC6
:1038E000542E00E00C94F90ABAE05B2E00E00C9430
:1038F000F90AB4E75B2E00E00C94F90A84E7582E2D
:1039000000E00C94F90A3EED631633E0730608F00C
:1039100046C04AE0640E711C64E7562E00E00C9429
:10392000F90A512C11E000E00C94F90A83E897E0C1
:10393000CACB75E6572E312C00E00C94F90A00E052
:103940000C94F90A31EB532E312C00E00C94F90A57
:103950008FE897E00C94360E8CE897E00C94360EC6
:103960006AE0562E00E00C94F90A8AE0582E00E036
:103970000C94F90A03FD75C100E00C94F90A02FFEA
:10398000AEC081E0830D8370382E4DE8542E00E0E8
:103990000C94F90AFAE05F2E00E00C94F90A04E7AF
:1039A000502E00E00C94F90A88E0FE01E75AFD4F22
:1039B000A5E4B5E001900D928A95E1F76D2D85E4BF
:1039C00095E00E94E3047AE0572E00E00C94F90A97
:1039D00080E031C80E94A42460E080E00E947C2442
:1039E00089EA94E00E94DC2461E080E00E947C246B
:1039F0008EE994E00E94DC240E94B50489E994E0F9
:103A00000E94DC2462E080E00E947C2482E994E051
:103A10000E94DC24FFCF79E0670E711C5DE8552E13
:103A200000E00C94F90A0DE8502E00E00C94F90A1D
:103A300088E0FE01E75AFD4FA5E9B4E001900D9240
:103A40008A95E1F7CE01875A9D4F0E941228FAE02D
:103A50005F2E00E00C94F90A88E0FE01E75AFD4F62
:103A6000A5E9B4E001900D928A95E1F7CE01875A5D
:103A70009D4F0E947D28FAE05F2E00E00C94F90A29
:103A800093013695279536952795ABE7B4E10E94CB
:103A90002837AC01569547959A01ADECBCEC0E94D5
:103AA00028379695879596958795969587959C0145
:103AB000220F331F880F991F880F991F880F991F96
:103AC000820F931F481B590B4930510569F094E64A
:103AD000690E711CFDE85F2E00E00C94F90A03FDED
:103AE0000CC000E00C94F90AE4E86E1AE3E07E0AE8
:103AF000EDE85E2E00E00C94F90A62E080E00E949E
:103B00007C2481E098E00E94DC2426E634E041E653
:103B100054E060E674E08BE594E00E94CA083FE858
:103B2000532E00E00C94F90A9301ADECBCEC0E941A
:103B30002837AC0156954795569547955695479524
:103B40009A010E9428379695879596958795969520
:103B500087959C01220F331F880F991F880F991F8B
:103B6000880F991F820F931F48175907E1F14AE008
:103B7000641A7108BDE85B2E00E00C94F90A930109
:103B8000369527953695279536952795A5ECB0E27D
:103B90000E942837AC01529542954F7045275F70BF
:103BA00045279A01ADECBCEC0E9428379695879585
:103BB00096958795969587959C01220F331F880FC0
:103BC000991F880F991F880F991F820F931F4817FD
:103BD000590789F0E8EE6E1AE3E07E0AFDE85F2EF1
:103BE00000E00C94F90A5AE5650E711CADE85A2EF6
:103BF00000E00C94F90AF8ED6F1AFCED7F0AEDE88D
:103C00005E2E00E00C94F90A9301369527953695BF
:103C10002795ABE7B4E10E942837AC01569547954C
:103C20009A01ADECBCEC0E94283796958795969545
:103C30008795969587959C01220F331F880F991FB2
:103C4000880F991F880F991F820F931F48175907D4
:103C500079F024E6621A7108FDE85F2E00E00C940A
:103C6000F90A0E94A4246AE0562E00E00C94F90A96
:103C70003CE7631A3CEF730AEDE85E2E00E00C941B
:103C8000F90A0E94A424512C00E00C94F90A80E067
:103C9000BAC8B9E75B2E00E00C94F90AC55ADD4FAB
:103CA0008881CB55D240882331F18150C55ADD4FF0
:103CB0008883CB55D24049E7542E00E00C94F90A92
:103CC00089E0681A7108E5EB5E2E00E00C94F90AB1
:103CD00080E00C944B0F8BE3C75ADD4F8883C955A6
:103CE000D24009E7502E00E00C94F90AB5EB5B2EA8
:103CF00000E00C94F90A87E1C55ADD4F8883CB5563
:103D0000D24039E7532E00E00C94F90A03FD10C0AD
:103D100000E00C94F90A83E398E0C15ADD4F9983DF
:103D20008883CF55D24007E9502E00E00C94F90A61
:103D30000E94A4249AE0592E00E00C94F90A73E83A
:103D4000572E00E00C94F90AC55ADD4F8881CB55F7
:103D5000D240882309F4C3C08150C55ADD4F8883FF
:103D6000CB55D24023E8522E00E00C94F90AC65AF3
:103D7000DD4F8881CA55D24090E001966CE370E037
:103D80000E94E936C65ADD4F8883CA55D24069E79A
:103D9000562E00E00C94F90A9301ADECBCEC0E94A5
:103DA0002837AC01569547955695479556954795B2
:103DB0009A010E94283796958795969587959695AE
:103DC00087959C01220F331F880F991F880F991F19
:103DD000880F991F820F931F481B590B49305105BB
:103DE000F1F14AE0640E711C95EB592E00E00C9441
:103DF000F90A930136952795369527953695279597
:103E0000A5ECB0E20E942837AC01529542954F7064
:103E100045275F7045279A01ADECBCEC0E9428371E
:103E20009695879596958795969587959C01220FEF
:103E3000331F880F991F880F991F880F991F820FB2
:103E4000931F481B590B4930510589F0E8E16E1A60
:103E5000ECEF7E0AF5EB5F2E00E00C94F90A5AE5D0
:103E6000651A710885EB582E00E00C94F90AF8E207
:103E70006F1AF3E27F0AE5EB5E2E00E00C94F90A7C
:103E800093013695279536952795ABE7B4E10E94C7
:103E90002837AC01569547959A01ADECBCEC0E94D1
:103EA00028379695879596958795969587959C0141
:103EB000220F331F880F991F880F991F880F991F92
:103EC000820F931F481B590B4930510599F024E686
:103ED000620E711CF5EB5F2E00E00C94F90A87E18D
:103EE000C55ADD4F8883CB55D24093E8592E00E068
:103EF0000C94F90A34E8631A33E0730AE5EB5E2E9A
:103F000000E00C94F90A9301ADECBCEC0E94283758
:103F1000AC015695479556954795569547959A0104
:103F20000E942837969587959695879596958795BB
:103F30009C01220F331F880F991F880F991F880F2C
:103F4000991F820F931F481B590B49305105F1F1FE
:103F5000FAE06F0E711C9DE8592E00E00C94F90AEE
:103F60009301369527953695279536952795A5EC97
:103F7000B0E20E942837AC01529542954F70452718
:103F80005F7045279A01ADECBCEC0E9428379695EE
:103F9000879596958795969587959C01220F331F57
:103FA000880F991F880F991F880F991F820F931FE1
:103FB000481B590B4930510589F078E1671A7CEFAD
:103FC000770AFDE85F2E00E00C94F90A2AE5621AF0
:103FD00071088DE8582E00E00C94F90A88E2681AFE
:103FE00083E2780AEDE85E2E00E00C94F90A0E9464
:103FF00038090C945B0E03FD16C000E00C94F90A1E
:104000000E9438097CC869E0661A7108EDE85E2EE6
:1040100000E00C94F90A8DE8582E00E00C94F90A9F
:1040200021500C94901762E080E00E947C2481E093
:1040300098E00E94DC2423E536E04EE456E06DE48F
:1040400076E088E496E00E94CA0866E7562E00E013
:104050000C94F90AC25ADD4F8881CE55D2408C307B
:1040600080F48F5FC25ADD4F8883CE55D24077E906
:10407000572E00E00C94F90A03FD0DC000E00C94EB
:10408000F90AC25ADD4F3882CE55D24067E9562E22
:1040900000E00C94F90A62E080E00E947C2481E058
:1040A00098E00E94DC2425EA35E040EA55E06FE91B
:1040B00075E08AE995E00E94CA08ABE75A2E00E055
:1040C0000C94F90A99E0690E711C65EB562E00E01C
:1040D0000C94F90AA5EB5A2E00E00C94F90AC65A82
:1040E000DD4F8881CA55D240882381F08150C65A5D
:1040F000DD4F8883CA55D24029E7522E00E00C9448
:10410000F90AE4E75E2E00E00C94F90A8BE3C65A44
:10411000DD4F8883CA55D24099E7592E00E00C94B0
:10412000F90AA4E75A2E00E00C94F90A9AE06916FD
:10413000710460F0EAE06E1A710819F46624639461
:10414000712C84E7582E00E00C94F90AF4E75F2EF6
:1041500000E00C94F90A37E9532E00E00C94F90AB8
:10416000C35ADD4F8881CD55D240823040F1815015
:10417000C35ADD4F8883CD55D24047E9542E00E025
:104180000C94F90A80E00C94421503FF46C0C25A11
:10419000DD4F8881CE55D240E82FF0E0EF5AFC4F3A
:1041A0002081823071F1C35ADD4F8881CD55D240D4
:1041B000281780F427E9522E00E00C94F90A8FE1C9
:1041C000C35ADD4F8883CD55D24037E9532E00E0E6
:1041D0000C94F90A62E080E00E947C2481E098E07F
:1041E0000E94DC2426EE35E041EE55E060EE75E0FD
:1041F0008BED95E00E94CA08A9E95A2E00E00C94C4
:10420000F90AC15ADD4F88819981CF55D240837018
:104210009927892B41F62F5FC6CF00E00C94F90A4D
:10422000C25ADD4F8881CE55D240823088F081500D
:10423000C25ADD4F8883CE55D24027E9522E00E086
:104240000C94F90A0E94A424512C00E00C94F90A61
:104250008CE0C25ADD4F8883CE55D24097E9592E63
:1042600000E00C94F90AC65ADD4F8881CA55D24045
:1042700090E001966CE370E00E94E936C65ADD4F8B
:104280008883CA55D24043E8542E00E00C94F90AC2
:104290000E94A424502E00E00C94F90AC65ADD4F67
:1042A0008881CA55D240882381F08150C65ADD4F9B
:1042B0008883CA55D24083E8582E00E00C94F90A4E
:1042C00003FD0EC000E00C94F90A8BE3C65ADD4FE3
:1042D0008883CA55D24003E8502E00E00C94F90AB6
:1042E00062E080E00E947C2481E098E00E94DC246F
:1042F0002FE234E04AE254E069E274E084E294E0C0
:104300000E94CA0873EA572E00E00C94F90A8BE366
:10431000C75ADD4F8883C955D240A3E85A2E00E022
:104320000C94F90A03FD55C000E00C94F90AEEEF75
:10433000DE2E00E00C94F90A930136952795369508
:104340002795ABE7B4E10E942837AC015695479515
:104350009A01ADECBCEC0E9428379695879596950E
:104360008795969587959C01220F331F880F991F7B
:10437000880F991F880F991F820F931F481759079D
:10438000E9F044E6641A7108F5EB5F2E00E00C9446
:10439000F90AC55ADD4F8881CB55D24090E001968D
:1043A00068E170E00E94E936C55ADD4F8883CB553D
:1043B000D24053E8552E00E00C94F90A5CE7651AE8
:1043C0005CEF750AE5EB5E2E00E00C94F90ADA94D6
:1043D00030C862E080E00E947C2481E098E00E9486
:1043E000DC2421E735E04CE655E06BE675E086E637
:1043F00095E00E94CA08E5E85E2E00E00C94F90AF8
:104400009301ADECBCEC0E942837AC015695479562
:1044100056954795569547959A010E942837969547
:10442000879596958795969587959C01220F331FC2
:10443000880F991F880F991F880F991F820F931F4C
:1044400048175907E1F16AE0661A710805EB502E2A
:1044500000E00C94F90A9301369527953695279537
:1044600036952795A5ECB0E20E942837AC0152950D
:1044700042954F7045275F7045279A01ADECBCEC23
:104480000E94283796958795969587959695879556
:104490009C01220F331F880F991F880F991F880FC7
:1044A000991F820F931F4817590789F028EE621A47
:1044B00023E0720AF5EB5F2E00E00C94F90A7AE52E
:1044C000670E711CB5EB5B2E00E00C94F90A38ED19
:1044D000631A3CED730AE5EB5E2E00E00C94F90ADA
:1044E000C35ADD4F8881CD55D2408F3180F48F5F24
:1044F000C35ADD4F8883CD55D240F7E95F2E00E0E7
:104500000C94F90A03FD0EC000E00C94F90A81E056
:10451000C35ADD4F8883CD55D240E7E95E2E00E0D7
:104520000C94F90A62E080E00E947C2481E098E02B
:104530000E94DC242CE933E047E953E066E973E0AC
:1045400081E993E00E94CA08BDEA5B2E00E00C946A
:10455000F90A60E085E495E00E9403050C942D10B3
:10456000DA946FEF8BEA582ED6120C94091A9EEF4C
:10457000D92E00E00C94F90A6D2D80E090E00E94A5
:10458000013C80E090E00E94F93B809301046AE0E6
:10459000562E00E00C94F90A0EE0502E00E00C9428
:1045A000F90AC55ADD4F8881CB55D24090E001967B
:1045B00068E170E00E94E936C55ADD4F8883CB552B
:1045C000D24079E7572E00E00C94F90A662D83E07B
:1045D00090E00E94013C672D82E090E00E94013C47
:1045E00083E090E00E94F93B082F82E090E00E9477
:1045F000F93B202F30E0382B30931D0120931C0114
:104600002AE0522E00E00C94F90A6D2D8CE390E024
:104610000E94013C8CE390E00E94F93B80930004EF
:10462000AAE05A2E00E00C94F90A62E085E495E0D5
:104630000E9403050C942D1061E085E495E00E9432
:1046400003050C942D1047E9542E00E00C94F90A50
:1046500003FD03C000E00C94F90A62E080E00E94D0
:104660007C2481E098E00E94DC2424E533E04FE4E0
:1046700053E06EE473E089E493E00E94CA0847EBDC
:10468000542E00E00C94F90A8F929F92AF92BF9241
:10469000CF92DF92EF92FF926C01CC2420E8D222DD
:1046A000E12CF12C9C0122273C77232F33272695E0
:1046B0002695A90160E070E093704C01A12CB12C0B
:1046C0007601DD24CC242F313105D1F1232B29F1C2
:1046D00040595F4F6F4F7F4F8DE0880C991CAA1C8B
:1046E000BB1C8A95D1F7C828D928EA28FB2897E16E
:1046F000440F551F661F771F9A95D1F7CB01BA015A
:104700006C297D298E299F29FF90EF90DF90CF9013
:10471000BF90AF909F908F900895892B71F0C50145
:10472000B4010E94F937DC01CB01BC50BC01CD01C2
:104730006C297D298E299F29E7CFC701B601E4CFD7
:10474000D501C4012DE0880F991FAA1FBB1F2A9510
:10475000D1F78C299D29AE29BF29BC01CD018068E4
:104760009F67D2CF5B9A8AB1837F8AB9E4E6F0E093
:1047700080818F7E808382E090E09093CD00809353
:10478000CC001092C8001092C9008EE08093CA003D
:1047900080E8EDE4F5E0DF011D928A95E9F71092DB
:1047A00003041092020408951F920F920FB60F9205
:1047B00011240BB60F922F933F938F939F93EF93F8
:1047C000FF9380910204909103049C012F5F3F4F5F
:1047D0003093030420930204FC01E35BFA4F8081D1
:1047E0008093CE008091020490910304803891055B
:1047F00048F08091C9008F7D8093C9001092030416
:1048000010920204FF91EF919F918F913F912F9110
:104810000F900BBE0F900FBE0F901F901895019731
:104820008F37910520F4FC01E35BFA4F6083089514
:104830008091C90085FD25C05B9A539A8091C9007B
:10484000877F8093C90080E28A95F1F75B9883E1C6
:1048500091E00197F1F700C000005B9A90E39A9510
:10486000F1F710920304109202048091C90088604D
:104870008093C9001092CE008091C900806280931D
:10488000C9000895611118C01298119894B19F60E1
:1048900094B995B1907F282F22952F70292B25B997
:1048A000109A00C010988F70892B85B9109A00C09B
:1048B00010989F6095B90895129AE7CF1298119AAF
:1048C00084B1807F84B9109A00C093B1109800C061
:1048D000109A00C023B12F70892F8295807F109885
:1048E000822B08950E945E2487FDFCCF86E090E035
:1048F0000197F1F70C945E24CF93C82F662361F0E3
:104900006130D1F0623081F00E94722460E084ED69
:104910008C0FCF910C9442240E94722460E080E8B6
:104920008C0FCF910C9442240E94722460E084E9A1
:104930008C0FCF910C9442240E94722460E080EC92
:104940008C0FCF910C9442240E94722460E081E08D
:104950000C944224CF93C82F0E947224CA3029F0AD
:1049600061E08C2FCF910C944224843148F090EC7C
:10497000980F943178F084518C3250F0C0E801C027
:10498000C0EC0E94722460E08C2FCF910C944224E2
:10499000C4EDF7CFC4E9F5CFCF93DF93EC012196B7
:1049A000FC018081882329F00E94AA248991811129
:1049B000FBCFDF91CF910895CF93DF93EC01219648
:1049C000FC018491882339F00E94AA24FE0184917D
:1049D00021968111F9CFDF91CF910895CF93C82F00
:1049E00084B18F6084B90A9A099A089A80E89BEB8F
:1049F0000197F1F7299A289A109A00C0109880E838
:104A00009AE30197F1F7109A00C0109880EC90E0BB
:104A1000FC013197F1F7109A00C01098FC01319712
:104A2000F1F72898109A00C010980197F1F70E94AA
:104A3000722460E088E20E9442240E94722460E0B6
:104A400088E00E9442240E94722460E081E00E947B
:104A500042240E94722460E086E00E9442240E9468
:104A6000722460E08C2FCF910C9442241F93CF933B
:104A7000DF93CDB7DEB760970FB6F894DEBF0FBEF9
:104A8000CDBF182F80E1E5E2F1E0DE011196019043
:104A90000D928A95E1F7812F82958F70E1E0F0E029
:104AA000EC0FFD1FE80FF11D80810E94AA241F70EA
:104AB000E1E0F0E0EC0FFD1FE10FF11D8081609659
:104AC0000FB6F894DEBF0FBECDBFDF91CF911F911F
:104AD0000C94AA240F931F93CF93DF938C019C0116
:104AE0003695279536952795ABE7B4E10E94283790
:104AF000AC01569547959A01ADECBCEC0E94283765
:104B00009695879596958795969587959C01220F02
:104B1000331F880F991F880F991F880F991F820FC5
:104B2000931F9A01281B390BC901805D0E94AA249A
:104B30009801ADECBCEC0E942837EC01D695C795E6
:104B4000D695C795D695C7959E010E94283796950C
:104B5000879596958795969587959C01220F331F8B
:104B6000880F991F880F991F880F991F820F931F15
:104B70009E01281B390BC901805D0E94AA24CE0129
:104B8000880F991FCC0FDD1FCC0FDD1FCC0FDD1F51
:104B9000C80FD91FC8018C1B9D0B805DDF91CF9181
:104BA0001F910F910C94AA24CF93C82F843668F1DB
:104BB00089E2C89F812D112482958F70805D0E94AB
:104BC000AA249DECC99F812D1124869586958695F2
:104BD000899F912D11249695969596952AE0929FFE
:104BE00080191124805D0E94AA248DECC89F812D1C
:104BF00011248695869586959AE0899FC01911247F
:104C00008C2F805DCF910C94AA240E94722461E0C5
:104C100080E20E944224CA30A0F60E94722461E021
:104C200080E20E944224E1CF0F931F93CF93DF9342
:104C30008C019C01369527953695279536952795B5
:104C4000A5ECB0E20E942837AC01529542954F7016
:104C500045275F7045279A01ADECBCEC0E942837D0
:104C60009695879596958795969587959C01220FA1
:104C7000331F880F991F880F991F880F991F820F64
:104C8000931F9A01281B390BC901805D0E94AA2439
:104C900098013695279536952795ABE7B4E10E94A4
:104CA0002837AC01569547959A01ADECBCEC0E94B3
:104CB00028379695879596958795969587959C0123
:104CC000220F331F880F991F880F991F880F991F74
:104CD000820F931F9A01281B390BC901805D0E9426
:104CE000AA249801ADECBCEC0E942837EC01D695C3
:104CF000C795D695C795D695C7959E010E9428372A
:104D00009695879596958795969587959C01220F00
:104D1000331F880F991F880F991F880F991F820FC3
:104D2000931F9E01281B390BC901805D0E94AA2494
:104D3000CE01880F991FCC0FDD1FCC0FDD1FCC0FCC
:104D4000DD1FC80FD91FC8018C1B9D0B805DDF9133
:104D5000CF911F910F910C94AA24CF93C82F8A3022
:104D6000B0F40E94722461E080E20E9442248DEC43
:104D7000C89F812D11248695869586959AE0899FF6
:104D8000C01911248C2F805DCF910C94AA249DEC26
:104D9000899F812D1124869586958695899F912DD1
:104DA00011249695969596952AE0929F8019112444
:104DB000805D0E94AA24DBCFCF93DF93D82F9DEC98
:104DC000899FC12D1124C695C695C695C99F912D61
:104DD00011249695969596958C2F2AE0929F80198E
:104DE0001124805D0E94AA248D2F9AE0C99F80190A
:104DF0001124805DDF91CF910C94AA24FF920F9330
:104E00001F93CF93DF93F62ED72F880F880F880F2D
:104E1000C0E4C80F0E94722460E08C2F0E944224DC
:104E20000F2D1D2F88E0F82EFC0E0E94722460E0EA
:104E30008C2F0E944224F801D4910E94722461E0D8
:104E40008D2F0E944224CF5F0F5F1F4FCF11EDCFF8
:104E5000DF91CF911F910F91FF90089566E478E064
:104E600080E00E94FE266EE378E081E00E94FE264C
:104E700066E378E082E00E94FE266EE278E083E05E
:104E80000E94FE2666E278E084E00E94FE266EE143
:104E900078E085E00E94FE2666E178E086E00E94E8
:104EA000FE260E94722460E080E80C944224DF9287
:104EB000EF92FF920F931F93CF93DF936E3008F022
:104EC00041C0C62FD0E08E01000F111FF801EC0F7A
:104ED000FD1FEE0FFF1FEF59FC4FF380D080815074
:104EE0008330D0F5E82FF0E0E25AFC4F808120ECCF
:104EF000E22EE80E60E00E947C248D2D0E94AA2400
:104F0000C00FD11FCC0FDD1FCF59DC4F89810E940C
:104F1000AA248A810E94AA240E94722460E08E2D15
:104F20000E9442248F2D0E94AA248C810E94AA24D0
:104F30008D81DF91CF911F910F91FF90EF90DF90C6
:104F40000C94AA24D12C33E0F32EC0E0D0E000E092
:104F500010E08150833030F290ECE92E80E0CACF2F
:104F6000FF920F931F93CF93DF93CDB7DEB72A97AE
:104F70000FB6F894DEBF0FBECDBF8AE0F82E8E01CB
:104F80000F5F1F4FF8018F2D11928A95E9F78CEA78
:104F9000898380E28A8340E062E0C8010E941C2B82
:104FA000F8011192FA94E9F78DEA898341E062E011
:104FB000C8010E941C2B0E94182B8111FCCF62E0BB
:104FC000C8010E944E2B882371F08A818C532A9647
:104FD0000FB6F894DEBF0FBECDBFDF91CF911F910A
:104FE0000F91FF90089580E0F2CFCF93DF93CDB77C
:104FF000DEB72A970FB6F894DEBF0FBECDBF8CEA9E
:10500000898380E18A8340E062E0CE0101960E94BC
:105010001C2B2A960FB6F894DEBF0FBECDBFDF91D2
:10502000CF9108950F931F93CF93DF93CDB7DEB742
:105030002A970FB6F894DEBF0FBECDBFDC018E01FC
:105040000F5F1F4F8AE0F80111928A95E9F78CEA09
:10505000898388E08A832C912C3308F02BE39DEC24
:10506000299F912D1124969596959695F0E19F9FF5
:10507000A00111248AE0989F20191124242B2B834E
:1050800011962C9111972C3308F02BE39DEC299F5E
:10509000912D1124969596959695E0E19E9FA001FD
:1050A0001124FAE09F9F20191124242B2C8312969F
:1050B0002C91283108F027E19DEC299F912D112496
:1050C00096959695969580E1989FA0011124EAE027
:1050D0009E9F20191124242B2D8341E065E0C801F7
:1050E0000E941C2B2A960FB6F894DEBF0FBECDBFD0
:1050F000DF91CF911F910F910895DF92EF92FF9270
:105100000F931F93CF93DF9300D000D01F92CDB7A2
:10511000DEB77C018E010F5F1F4F85E0F801119211
:105120008A95E9F78CEAD82ED9828BE08A83F70139
:1051300094818DEC989F812D112486958695869576
:10514000F0E18F9F900111244AE0849F901911246F
:10515000922B9B8341E063E0C8010E941C2BD98203
:105160008DE08A83F70195819D3008F09CE08DECFD
:10517000989F212D1124269526952695F0E12F9FA5
:10518000A00111243AE0239F90191124942B9B83B2
:10519000F7019681905D989F812D112486958695C3
:1051A0008695F0E18F9F900111244AE0849F901929
:1051B0001124922B9F779C8341E064E0C8010E94F8
:1051C0001C2B0F900F900F900F900F90DF91CF91AD
:1051D0001F910F91FF90EF90DF900895DF92EF9273
:1051E000FF920F931F93CF93DF93CDB7DEB72A972C
:1051F0000FB6F894DEBF0FBECDBF7C018AE0D82E7B
:105200008E010F5F1F4FF8018D2D11928A95E9F7DE
:105210008CEA898388E08A8340E062E0C8010E94CA
:105220001C2BF8011192DA94E9F78DEA898341E0A9
:1052300068E0C8010E941C2B0E94182B8111FCCF32
:1052400068E0C8010E944E2B882309F459C08A8166
:10525000982F9695969596959E70292F220F220F3E
:10526000920F8F70890FF70180838B81982F96950D
:10527000969596959E70292F220F220F920F8F7070
:10528000890F81838C8186FD49C0982F90739695F4
:1052900096959695292F220F220F920F8F70890FC6
:1052A000F70182838D81982F9695969596959670A5
:1052B000292F220F220F920F8F70890FF7018483FD
:1052C0008E81877083838F8184FB992790F9990F52
:1052D000292F220F220F920F8F70890F85839885B7
:1052E000892F8695869586958670282F220F220F06
:1052F000820F9F70890F90E08053984F9783868329
:105300002A960FB6F894DEBF0FBECDBFDF91CF91C6
:105310001F910F91FF90EF90DF90089584FB9927E4
:1053200090F9990F292F220F220F290F982F9F7084
:10533000920F85FF02C0945FF7019283B3CFEF9283
:10534000FF921F93CF93DF93CDB7DEB72A970FB6A7
:10535000F894DEBF0FBECDBFFC01909104049F5FA7
:10536000909304049E012F5F3F4F79018AE0D90199
:105370001D928A95E9F78CEA898390FD33C08DE30D
:105380008A8312811B8391819C8320812D8319271D
:105390008CEC1827122740E065E0C7010E941C2B07
:1053A0008CEA898388E38A838091040480FD18C095
:1053B00082E08B831C8340E064E0C7010E941C2BC9
:1053C0000E94182B8111FCCF2A960FB6F894DEBFED
:1053D0000FBECDBFDF91CF911F91FF90EF90089549
:1053E00081E0E7CF8AE3CCCFCF92DF92FF920F9399
:1053F0001F93CF93DF93CDB7DEB72A970FB6F894FC
:10540000DEBF0FBECDBF6C018AE0F82E8E010F5FAC
:105410001F4FF8018F2D11928A95E9F78CEA898345
:1054200088E38A8340E062E0C8010E941C2BF801F7
:105430001192FA94E9F78DEA898341E063E0C801AB
:105440000E941C2B0E94182B8111FCCF63E0C80125
:105450000E944E2B882329F08A819FEF980F92306B
:1054600078F080E02A960FB6F894DEBF0FBECDBF6D
:10547000DF91CF911F910F91FF90DF90CF90089512
:10548000FB809CEA998380FD2DC08DE38A8340E0F8
:1054900062E0C8010E941C2B8AE0F80111928A95F3
:1054A000E9F78DEA898341E064E0C8010E941C2B82
:1054B0000E94182B8111FCCF64E0C8010E944E2B82
:1054C000882379F23A812B81932F92278CEC8927BC
:1054D0009C818927F812C5CFF601328321839083FE
:1054E00081E0C0CF8AE3D2CF1F920F920FB60F9206
:1054F00011240BB60F922F933F938F939F93AF93EB
:10550000BF93EF93FF938091B900E82FEC7F8E2F2C
:1055100090E0FC013897E135F105B8F08091B900D1
:105520008C7F8093220184E08093BC00FF91EF91F7
:10553000BF91AF919F918F913F912F910F900BBE93
:105540000F900FBE0F901F901895ED5BFE4F0C94BF
:105550001F37E091060481E08E0F80930604F0E08F
:105560008091BB00E353FA4F80832091060430E022
:105570008091070490E0019728173907CCF485EC57
:105580008093BC00D3CF10920604909106048091C2
:105590000704981788F080910504816080930504C2
:1055A0008091050481FFBFCF84E98093BC00BECF0A
:1055B00085E88093BC00BACFE091060481E08E0FAD
:1055C00080930604F0E0E353FA4F80818093BB00A0
:1055D00085E88093BC00AACF8091B9008C7F80932E
:1055E000220184E98093BC00A1CF85EA8093BC00AE
:1055F0009DCFE0910604F0E08091BB00E353FA4FA9
:10560000808380910504816080930504CDCF109242
:10561000050488EF8093220187E08093B800109200
:10562000B9008FEF8093BB0084E08093BC000895A5
:105630008091BC0081700895CF93DF93FC01C42F4B
:105640008091BC0080FDFCCFDFB7F8946093070425
:1056500080818093CD058091CD0580FF13C088EFB8
:105660008093220110920504CC2329F08091050437
:10567000826080930504DFBF85EA8093BC00DF91E0
:10568000CF910895462F50E041505109BF016F5FFF
:105690007F4F8EEC95E00E94F238E1CFCF932091BE
:1056A000BC0020FDFCCFCFB7F8942091050420FF6B
:1056B00006C0462F50E06DEC75E00E94F238CFBF77
:1056C000809105048170CF9108951F920F920FB6BB
:1056D0000F9211240BB60F922F933F934F935F932A
:1056E0006F937F938F939F93AF93BF93EF93FF93AA
:1056F0008091C0008871C1F18091C60080934C04F4
:1057000010924C04109209048091C6008D37C9F0A4
:105710008E37B9F482E010924C0490E4EDE4F4E0AA
:10572000DF011D929A95E9F780930904E0914C04FA
:1057300081E08E0F80934C04F0E0E35BFB4F8EE73B
:105740008083FF91EF91BF91AF919F918F917F9156
:105750006F915F914F913F912F910F900BBE0F90E2
:105760000FBE0F901F9018958091C6008D3709F4D9
:1057700052C08E3709F457C09091090491FFE1CFD0
:1057800090FF05C020E282279E7F909309049091AC
:105790004C049F3308F04BC0E0914C0491E09E0F05
:1057A00090934C04F0E0E35BFB4F808380914C04CA
:1057B000843009F44BC080914C04853010F2209164
:1057C0004C04809108042813BCCF83E080934C04E0
:1057D00080914C04821798F490E0E0914C04F0E042
:1057E000E35BFB4F8081980F80914C048F5F809327
:1057F0004C0480914C04821780F39F3F69F1EDE4E3
:10580000F4E080E4DF011D928A95E9F710924C04E0
:105810001092090496CF8091090481FF92CF816094
:10582000809309048ECF80910904826074CF8091A7
:1058300009048D7F8093090410924C0480E4EDE408
:10584000F4E0DF011D928A95E9F77BCF80914F0448
:105850008C5F80930804AFCF88E080934C048091E4
:105860005004803841F1813851F6E0914C04F0E069
:10587000E55BFB4F2081E0914C04F0E0E35BFB4FE4
:1058800082818431E0F4E0914C04F0E0E35BFB4F73
:10589000428160914C0470E0635B7B4F8DED95E03D
:1058A0000E945B2EE0914C04F0E0E55BFB4F8081B1
:1058B00080932301A4CF8EE080934C04D6CF44E1A3
:1058C000E8CF1F920F920FB60F9211240BB60F92D2
:1058D0008F939F93EF93FF93E0910B0481E08E0FE2
:1058E00080930B04F0E0E45FFB4F80818093C6005F
:1058F00090910B0480910A04981720F480910B0476
:10590000803438F08091C1008F7D8093C100109267
:105910000B04FF91EF919F918F910F900BBE0F9011
:105920000FBE0F901F9018958FEF80932301569A0A
:105930005E988AB18C7F8AB910924C0480E4EDE4C1
:10594000F4E0DF01982F1D929A95E9F710920B046D
:10595000ECE0F4E0DF011D928A95E9F78CE090E03D
:105960009093C5008093C40082E08093C000E1EC76
:10597000F0E0108286E08093C20088E98083089579
:10598000AF92BF92CF92DF92EF92FF920F931F934D
:10599000CF93DF93CDB7DEB76E970FB6F894DEBF27
:1059A0000FBECDBF83EE95E00E94532EE82E8823D4
:1059B00049F08091C100282F2072E22E85FF14C08B
:1059C000EE24E3948E2D6E960FB6F894DEBF0FBED4
:1059D000CDBFDF91CF911F910F91FF90EF90DF909E
:1059E000CF90BF90AF9008958E010F5F1F4F8EE153
:1059F000D8011D928A95E9F78EE7898381E08C832F
:105A00008FEF8E838F8321E046E1BE01675F7F4F7A
:105A100083EE95E00E94DA2EAB8485E08A0D8B83BD
:105A2000B4E0BA1508F092C068018DEFB82EBA0C38
:105A30009DEFF92E80E090E0E1E0EF1528F4D6012B
:105A400018966C910E94AB2DF394BFEFCB1ADB0A32
:105A5000BF10F2CF8C879D87EA2DF0E0BF01695F10
:105A60007F4F83E090E040E033E0D801A80FB91FFA
:105A70008C91480F3F5F832F90E068177907ACF750
:105A80009F01285F3F4FF801E20FF31F40954083CD
:105A900010920A0480E4ECE0F4E0DF011D928A95A4
:105AA000E9F7E0910A0481E08E0F80930A04F0E0A8
:105AB000E45FFB4F8EE7808381E090E041E06DE79B
:105AC00050E212C08131D9F0E0910A0491E09E0FBA
:105AD00090930A04F0E0E45FFB4F80834F5F842FD4
